:020000040800F2
:10000000005000201D3D00084D3C00084F3C0008FA
:10001000513C0008533C0008553C0008000000001B
:10002000000000000000000000000000573C000835
:10003000593C0008000000005B3C00085D3C0008E3
:10004000653D0008653D0008653D0008653D000808
:10005000653D0008653D0008653D0008653D0008F8
:10006000653D0008653D0008653D0008653D0008E8
:10007000653D0008653D0008653D0008653D0008D8
:10008000653D0008653D0008653D0008653C0008C9
:10009000753C0008653D0008653D0008653D0008A9
:1000A000653D0008653D0008653D0008653D0008A8
:1000B000853C000865380008653D0008653D00087E
:1000C000653D0008653D0008653D0008653D000888
:1000D000653D0008653D0008653D0008653D000878
:1000E000653D0008653D0008653D00080000000012
:1000F0000000000000000000000000000000000000
:0C01000000000000000000005FF808F1A3
:10010C0010B5054C237833B9044B13B10448AFF345
:10011C0000800123237010BDA80000200000000007
:10012C00204600080C4B43B10C4810B50C49AFF3FA
:10013C0000800C48036823B910BD0A48036833B922
:10014C007047094B002BF7D0BDE810401847064B01
:10015C00002BF5D0184700BF000000002046000817
:10016C00AC000020A80000200000000010B50446E0
:10017C000E4B18784FF47A73B3FBF0F30C4A1068FB
:10018C00B0FBF3F000F006FF68B90F2C01D9012089
:10019C0010BD002221464FF0FF3000F0BBFE034B98
:1001AC005C60002010BD012010BD00BF00000020CD
:1001BC004000002008B5074A136843F01003136091
:1001CC00032000F095FE0020FFF7D0FF03F0CEFBDC
:1001DC00002008BD00200240034A1168034B1B7825
:1001EC000B441360704700BF280300200000002060
:1001FC00014B1868704700BF2803002038B504462F
:10020C00FFF7F6FF0546B4F1FF3F02D0044B1B7815
:10021C001C44FFF7EDFF401B8442FAD838BD00BFE9
:10022C0000000020F0B583B005460C460023019376
:10023C00FFF7DEFF2B689A6812F4807F23D1064605
:10024C005A6812F4807F03D1DB6A13F4700F24D048
:10025C004B4B1F68022002F043FBB7FBF0F72B68F7
:10026C001969484A11422FD1D96802F15C421142F6
:10027C002AD11969444A114239D1DA68434B1A42DE
:10028C0037D029203AE0AB6A43F02003AB6200235D
:10029C0085F82430012003B0F0BD2B681B6813F0E7
:1002AC00020F48D1B4F1FF3FF7D024B1FFF7A0FF04
:1002BC00801B8442F1D2AB6A43F00403AB6200238F
:1002CC0085F824300320E6E719692F4A114204D13E
:1002DC00D96802F16E4211420DD019692C4A0A40BC
:1002EC005AB9DA682A4B13405BB1FC2006E029208E
:1002FC0004E0142002E0542000E0FC2007FB00F78F
:10030C0004E05420FAE7019B01330193019B9F42C7
:10031C0011D9B4F1FF3FF6D024B1FFF769FF801B70
:10032C008442F0D2AB6A43F00403AB62002385F83D
:10033C0024300320AFE72B686FF012021A60AB6A0F
:10034C0043F40073AB622B689B6803F46023B3F532
:10035C00602F01D000209EE72B7B6BB9AB6A23F496
:10036C008073AB62AB6A13F4805F07D1AB6A43F066
:10037C000103AB6200208EE700208CE700208AE7A7
:10038C0040000020244992249224491292244900CE
:10039C00499224000368D86C7047000030B482B0D6
:1003AC000023019390F82430012B00F08B8002463F
:1003BC00012380F824304B68062B29D80568686B1C
:1003CC0003EB8303053B1F249C4020EA04000C68CC
:1003DC0004FA03F303436B630B68092B38D91568D4
:1003EC00E86803EB43031E3B07249C4020EA04000F
:1003FC008C6804FA03F30343EB600B68103B012B8E
:10040C0034D90020002382F8243002B030BC70476D
:10041C000C2B0ED80568286B03EB8303233B1F249E
:10042C009C4020EA04000C6804FA03F303432B639A
:10043C00D2E70568E86A03EB8303413B1F249C4029
:10044C0020EA04000C6804FA03F30343EB62C3E7ED
:10045C001568286903EB430307249C4020EA040039
:10046C008C6804FA03F303432B61C6E71368164840
:10047C00834205D0936A43F0200393620120C1E7C5
:10048C00986810F4000F1BD1986840F40000986035
:10049C000B68102B01D00020B4E70C4B1B680C49E7
:1004AC00A1FB03139B0C03EB83035900019102E0A6
:1004BC00019B013B0193019B002BF9D10020A1E78B
:1004CC0000209FE70220A0E700240140400000200C
:1004DC0083DE1B4330B583B00023019303689A6815
:1004EC0012F0010F2ED19A6842F001029A60174B5C
:1004FC001B68174AA2FB03239B0C019302E0019B90
:10050C00013B0193019B002BF9D10446FFF770FED0
:10051C00054623689B6813F0010F11D1FFF768FEA5
:10052C00401B0228F5D9A36A43F01003A362E36AC7
:10053C0043F00103E362002384F82430012002E03D
:10054C00002000E0002003B030BD00BF40000020C0
:10055C0083DE1B4390F82430012B02D10223184672
:10056C00704710B50446012380F82430FFF7B2FF22
:10057C00034600285BD1A26A22F4407222F00102E9
:10058C0042F48072A26222682B498A4227D0A16A67
:10059C0021F48011A162516811F4806F05D0A16A19
:1005AC0021F4405141F48051A162A16A11F4805FA1
:1005BC002BD0E16A21F00601E162002184F82410BD
:1005CC006FF0020111602268916801F46021B1F5AD
:1005DC00602F1DD0916841F4801191602AE0A1F543
:1005EC008061496811F4702FD1D0A16A41F4801157
:1005FC00A1621249496811F4806FD6D0A16A21F426
:10060C00405141F48051A162CFE70021E162D4E76F
:10061C0009498A4204D0916841F4A001916009E033
:10062C00A1F58061496811F4702FD3D1F3E7002252
:10063C0084F82420184610BD0028014000240140F5
:10064C0038B503689A6812F0010F01D1002038BD4B
:10065C0004469A6822F001029A60FFF7C9FD05462C
:10066C0023689B6813F0010F0ED0FFF7C1FD401BF0
:10067C000228F5D9A36A43F01003A362E36A43F09E
:10068C000103E362012038BD002038BD00287FD073
:10069C0038B50446836A002B4AD02046FFF7D0FFBA
:1006AC00A36A13F010036DD100286BD1A26A22F457
:1006BC00885222F0020242F00202A2626268E169F0
:1006CC000A43257B42EA4502A168B1F5807F38D008
:1006DC00012933D0217D012936D02568696821F4A0
:1006EC0069410B436B6021688D682A4B2B40134387
:1006FC008B60A368B3F5807F37D0012B35D00023F6
:10070C002568E96A21F470010B43EB622368996850
:10071C00214B0B409A422CD0A36A23F0120343F0D6
:10072C001003A362E36A43F00103E362012038BDC6
:10073C00C36280F8243003F03BF9AEE74FF48073CA
:10074C00C8E74FF48073C5E735B9A169013943EAAD
:10075C00413343F40063C0E7A16A41F02001A16278
:10076C00E16A41F00101E162B7E72369013B1B0536
:10077C00C6E70023E362A36A23F0030343F00103FB
:10078C00A36238BDA36A43F01003A362012038BDF5
:10079C0001207047FDF7E1FFFE0E1FFF002800F05F
:1007AC00A18038B5044690F82030D3B12268136884
:1007BC0023F002031360FFF71BFD054623685A68FC
:1007CC0012F0020F10D0FFF713FD401B0A28F5D9C9
:1007DC00636A43F400336362052384F820300120FC
:1007EC0038BD03F039F9E1E71A6842F001021A60EA
:1007FC00FFF7FEFC054623685A6812F0010F0DD175
:10080C00FFF7F6FC401B0A28F5D9636A43F4003362
:10081C006362052384F82030012038BD227E012A32
:10082C003DD01A6822F080021A60637E012B3BD007
:10083C002268136823F040031360A37E012B39D088
:10084C002268136823F020031360E37E012B37D05A
:10085C002268136843F010031360237F012B35D0FB
:10086C002268136823F008031360637F012B33D0D5
:10087C002268136823F0040313602168A368E268FC
:10088C00134322691343626913436268013A1343A9
:10089C00CB6100206062012384F8203038BD1A68D7
:1008AC0042F080021A60C0E72268136843F04003EC
:1008BC001360C2E72268136843F020031360C4E797
:1008CC002268136823F010031360C6E722681368CC
:1008DC0043F008031360C8E72268136843F004036D
:1008EC001360CAE701207047026890F82030013B82
:1008FC00DBB2012B05D9436A43F480234362012008
:10090C00704770B4D2F8003243F00103C2F80032E1
:10091C004B6903F01F03012000FA03F3D2F81C42C9
:10092C00D8430440C2F81C42CC69ACB9D2F80C4292
:10093C000440C2F80C424C69CE688D8845EA0645E5
:10094C00483442F834504C698E680D8845EA0645A7
:10095C00483402EBC4046560CC69012C19D08C6955
:10096C0074BBD2F804420440C2F804420C696CBB5C
:10097C00D2F814422040C2F81402096A01292BD083
:10098C00D2F8003223F00103C2F80032002070BC10
:10099C007047D2F80C421C43C2F80C424C690E68EA
:1009AC008D8845EA0645483442F834504C698E68C7
:1009BC008D8945EA0645483402EBC4046560CEE7F0
:1009CC00D2F804421C43C2F80442CFE7D2F8140216
:1009DC001843C2F81402D0E7D2F81C120B43C2F829
:1009EC001C32CDE738B590F82030DBB2012B05D0A6
:1009FC00436A43F400234362012038BD04460223BA
:100A0C0080F820300268136823F001031360FFF7AD
:100A1C00EFFB054623685B6813F0010F0DD0FFF761
:100A2C00E7FB401B0A28F5D9636A43F40033636281
:100A3C00052384F82030012038BD0020606238BDC9
:100A4C0070B490F820400568AD68013CE4B2012C0C
:100A5C0006D9436A43F480234362012070BC70477B
:100A6C0015F0E05F5BD0C5F30165022D3ED8012483
:100A7C00AC401C608B68002B3ED104680E68CB68C0
:100A8C0043EA465605F118031B01E65003680C694E
:100A9C0005F1180603EB06135C600B7D012B36D0B9
:100AAC000468D17993791B0443EA0163517943EAD1
:100ABC00012311790B432E013444C4F88C310168A5
:100ACC00D47893781B0443EA0463547843EA0423F0
:100ADC00127813433144C1F88831026818352D015E
:100AEC00535943F0010353510020B7E7436A43F4D1
:100AFC00000343620120B1E704684E6843EAC60371
:100B0C00CE68334305F118063601A351BEE70368DE
:100B1C0003EB0613596841F480715960C0E7436ACE
:100B2C0043F400134362012098E730B490F820405E
:100B3C00013CE4B2012C06D9436A43F4802343629E
:100B4C00012030BC704700296FD10468E46814F0B0
:100B5C00030F64D0056801F11B0424012C5904F027
:100B6C0004049460002C6BD1056801F11B04240172
:100B7C002C59640D1460056801F11B0424012D59D6
:100B8C0005F00205D560056825446D6805F00F0574
:100B9C001561056825446D68C5F3072595610568E1
:100BAC002C446468240C546104680A011444D4F87D
:100BBC00B8411C7004681444D4F8B841C4F3072439
:100BCC005C7004681444D4F8B841C4F307449C70B6
:100BDC0004681444D4F8B841240EDC70046814443E
:100BEC00D4F8BC411C7104681444D4F8BC41C4F35F
:100BFC0007245C7104681444D4F8BC41C4F3074462
:100C0C009C7104682244D2F8BC21120EDA71F9B935
:100C1C000268D36843F02003D360002091E7436A55
:100C2C0043F40013436201208BE70468246914F039
:100C3C00030F8FD1436A43F400134362012080E712
:100C4C00056801F11B0424012C59E408546092E757
:100C5C000268136943F020031361002071E790F8D8
:100C6C002030013BDBB2012B05D9436A43F48023CE
:100C7C004362012070470268536919435161002097
:100C8C0070477047704770477047704770477047A0
:100C9C0070477047704770472DE9F84F0546036859
:100CAC005C695F689E68D3F80C90D3F81080D3F819
:100CBC0018A014F0010F5AD016F0010F17D0012212
:100CCC009A6016F0020F08D116F0040F30D116F00E
:100CDC00080F07D04FF4805B0BE002F0A9FD4FF03A
:100CEC00000B06E0FFF7CFFF4FF0000B01E04FF0D9
:100CFC00000B16F4807F0BD02B684FF480729A6037
:100D0C0016F4007F17D116F4806F18D04BF4005BEB
:100D1C0016F4803F2DD02B684FF480329A6016F475
:100D2C00003F16D116F4802F17D04BF4004B20E067
:100D3C004FF4006BDDE72846FFF7A3FFE8E716F456
:100D4C00006F02D04BF4804BE2E72846FFF79CFF84
:100D5C00DEE72846FFF796FF0BE016F4002F02D0D3
:100D6C004BF4803B05E02846FFF78FFF01E04FF086
:100D7C00000B14F0080F07D019F0100F04D04BF42F
:100D8C00007B2B681022DA6014F0040F02D019F0EB
:100D9C00080F60D114F0020F04D02B68DB6813F03D
:100DAC00030F5FD114F0400F07D018F0100F04D0D0
:100DBC004BF4806B2B6810221A6114F0200F02D0B8
:100DCC0018F0080F52D114F0100F04D02B681B69C7
:100DDC0013F0030F51D114F4003F02D017F0100F91
:100DEC004FD114F4803F02D017F0080F50D114F4F7
:100DFC00004F67D017F0040F61D014F4807F04D03B
:100E0C001AF0010F01D04BF0010B14F4007F04D049
:100E1C001AF0020F01D04BF0020B14F4806F04D0C7
:100E2C001AF0040F01D04BF0040B14F4006F46D0F1
:100E3C001AF0700A43D0BAF1300F48D02FD9BAF15A
:100E4C00500F47D0BAF1600F47D0BAF1400F31D1F3
:100E5C004BF0400B2EE02B680822DA602846FFF797
:100E6C0015FF97E7284602F0E5FC9BE72B68082264
:100E7C001A612846FFF70CFFA5E72846FFF707FF86
:100E8C00A9E72B6810225A602846FFF702FFA8E753
:100E9C002B6808225A602846FFF7FCFEA7E7BAF138
:100EAC00100F05D0BAF1200F04D14BF0100B01E05C
:100EBC004BF0080B2A68936923F0700393612B683D
:100ECC0004225A60BBF1000F0AD1BDE8F88F4BF039
:100EDC00200BEFE74BF0800BECE74BF4807BE9E762
:100EEC006B6A4BEA03036B622846FFF7D4FEECE710
:100EFC00074AD36823F4E0631B041B0C000200F4C4
:100F0C00E060184340F0BF6040F40030D0607047A0
:100F1C0000ED00E030B4164BDB68C3F30223C3F1E1
:100F2C000704042C28BF04241D1D062D17D9033BD0
:100F3C00012505FA04F4013C2140994005FA03F31C
:100F4C00013B1340194300280BDB0901C9B200F126
:100F5C00604000F5614080F8001330BC70470023FE
:100F6C00E6E700F00F000901C9B2024B1954F4E78F
:100F7C0000ED00E014ED00E0002808DB420900F071
:100F8C001F00012303FA00F0014B43F822007047C5
:100F9C0000E100E00138B0F1807F0AD2064B5860C6
:100FAC00F021064A82F823100020986007221A606C
:100FBC0070470120704700BF10E000E000ED00E03A
:100FCC00F0B583B00026344671E0002D00F0A2800D
:100FDC00012D00D1CE68FF2B00F2B0808646FF2B8E
:100FEC0000F2AF80A500DEF800200F27AF4022EA08
:100FFC00070206FA05F52A43CEF800204A6812F0DB
:10100C00805F53D0644A956945F0010595619269FA
:10101C0002F001020192019AA508AF1C5F4A52F836
:10102C00272004F00307BF004FF00F0E0EFA07FE47
:10103C0022EA0E02DFF874E1704500F089800EF5AB
:10104C00806E704500F087800EF5806E704500F064
:10105C0085800EF5806E704577D04FF0040E0EFA39
:10106C0007F73A4302354D4F47F825204A6812F4EA
:10107C00803F76D04A4D2A681A432A604A6812F497
:10108C00003F74D0464D6A681A436A604A6812F48D
:10109C00801F72D0424DAA681A43AA604A6812F4A3
:1010AC00001F70D03E4DEA681343EB6001340B68AF
:1010BC0033FA04F26DD00122A24013409A42F5D1CA
:1010CC004D68122D30D00BD8022D2AD07FF67DAF73
:1010DC00032D2FD0112D7FF47EAFCE6804367AE726
:1010EC00304FBD4216D00CD92F4FBD4212D007F550
:1010FC008037BD420ED0A7F58017BD427FF46BAF91
:10110C0008E0A7F58017BD4204D007F58037BD4233
:10111C007FF461AF8D687DB1012D08D04261082646
:10112C0059E7CE68083656E7CE680C3653E70261AD
:10113C00082650E700264EE704264CE700F1040E83
:10114C004DE7A4F10805AD004DE74FF0030E86E71F
:10115C004FF0000E83E74FF0010E80E74FF0020EC8
:10116C007DE70F4D2A6822EA03022A6086E70C4DC0
:10117C006A6822EA03026A6088E7094DAA6822EAD3
:10118C000302AA608AE7064DEA6822EA0303EB60D1
:10119C008CE703B0F0BD00BF00100240000001401E
:1011AC000004014000002110000031100008014033
:1011BC0012B909040161704701617047C3680B42A1
:1011CC0001D1016170474161704703685A6912F49B
:1011DC00806F11D06FF480625A6100230363202268
:1011EC0080F83D2080F83E30026C42F0040202642C
:1011FC0080F83C300120704700207047F8B5064657
:10120C000C4617461D4622E0FEF7F2FF069BC01A5D
:10121C00854200D3DDB900233363202286F83D20BC
:10122C0086F83E30326C42F02002326486F83C3054
:10123C000120F8BD33685B6924EA03039BB2B3FA5F
:10124C0083F35B09BB420FD1B5F1FF3FDCD1C4F393
:10125C000743012BEED033689B6924EA03039BB24E
:10126C00B3FA83F35B09EDE70020F8BDF8B504464B
:10127C000D4616461F463CE01A6842F400721A608E
:10128C0023686FF480625A6100232363202284F860
:10129C003D2084F83E30226C42F00402226484F833
:1012AC003C300120F8BDFEF7A3FFC01B864200D3E3
:1012BC00FEB900232363202284F83D2084F83E30BD
:1012CC00226C42F02002226484F83C300120F8BDEC
:1012DC0023685B6925EA03039BB2003318BF012323
:1012EC00A3B123685A6912F4806FC5D1B6F1FF3FE0
:1012FC00D9D1C5F30743012BEAD023689B6925EAB2
:10130C0003039BB2003318BF0123E9E70020F8BDAB
:10131C00F0B583B004460F4615461E46C36A082B2B
:10132C000DD0012B0BD013F5803F08D0036B122B83
:10133C000AD10268136843F48073136004E02268D6
:10134C00136843F48073136000962B4600224FF011
:10135C0001112046FFF752FF18BB2369B3F5804FEC
:10136C0011D02268FB1103F0060343F0F003136164
:10137C0033462A460E492046FFF778FFA8B9236862
:10138C00FFB21F6103E0236807F0FE071F613346BD
:10139C002A4608492046FFF769FF034610B101238E
:1013AC0000E00123184603B0F0BD0123FAE700BFAB
:1013BC00080001000200010070B504460D461646F7
:1013CC0023685B6913F0800F1CD12046FFF7FDFEEC
:1013DC00D0B9B5F1FF3FF3D0FEF70AFF801B854271
:1013EC0001D3002DECD100232363202284F83D206F
:1013FC0084F83E30226C42F02002226484F83C30A7
:10140C00012070BD002070BD012070BD2DE9F041A0
:10141C0084B005460E4690461F460B9C0268136826
:10142C0043F4806313600268136843F480731360A1
:10143C0000940A9B00224FF00111FFF7DFFE20B150
:10144C000323184604B0BDE8F0812B68F6B206F011
:10145C00FE021A6123460A9A7F492846FFF706FFC7
:10146C0030B12B6C042B01D00323EAE70123E8E70E
:10147C00002303932B685A6903929B690393039B84
:10148C0022460A992846FFF797FF58B12B6C042B7C
:10149C0001D00323D5E72A68136843F40073136063
:1014AC000123CEE7012F13D0102F16D0032F2FD0EE
:1014BC00042F5ED022460A992846FFF77DFF0028AC
:1014CC0000F0A5802B6C042B00F09A800323B8E766
:1014DC002B685FFA88F21A61ECE72B68C8F30722D5
:1014EC001A6122460A992846FFF766FF58B12B6C01
:1014FC00042B01D00323A4E72A68136843F4007378
:10150C00136001239DE72B685FFA88F21A61D1E71B
:10151C002B68C8F307421A6122460A992846FFF73E
:10152C004BFF58B12B6C042B01D0032389E72A689D
:10153C00136843F400731360012382E72B68C8F32C
:10154C0007221A6122460A992846FFF735FF58B13F
:10155C002B6C042B01D0032373E72A68136843F424
:10156C000073136001236CE72B685FFA88F21A6131
:10157C00A0E72B684FEA18621A6122460A9928469E
:10158C00FFF71AFF58B12B6C042B01D0032358E73B
:10159C002A68136843F400731360012351E72B6826
:1015AC00C8F307421A6122460A992846FFF704FF3E
:1015BC0058B12B6C042B01D0032342E72A68136823
:1015CC0043F40073136001233BE72B68C8F3072235
:1015DC001A6122460A992846FFF7EEFE58B12B6C89
:1015EC00042B01D003232CE72A68136843F40073FF
:1015FC001360012325E72A685FFA88F3136159E722
:10160C002A68136843F400731360012319E72A68EE
:10161C00136843F48073136000940A9B00224FF00C
:10162C0001112846FFF7EAFD08B1032309E72B68EF
:10163C0046F001061E6123460A9A07492846FFF721
:10164C0015FE034600283FF4FCAE2B6C042B01D096
:10165C000323F6E60123F4E6020001002DE9F04134
:10166C0084B004460E46174698460B9D02681368D4
:10167C0043F4806313600268136843F4807313604F
:10168C0000950A9B00224FF00111FFF7B7FD20B126
:10169C000123184604B0BDE8F0812368F6B206F0C9
:1016AC00FE021A612B460A9A38492046FFF7DEFDE6
:1016BC0008B10123EDE70023039323685A690392D1
:1016CC009B690393039B2A460A992046FFF774FEF5
:1016DC0058B1236C042B01D00123DAE7226813687C
:1016EC0043F4007313600123D3E7B8F1010F0DD05D
:1016FC0023683A0A1A612A460A992046FFF75CFECB
:10170C00C8B1236C042B0FD00123C2E72368FFB2AE
:10171C001F612A460A992046FFF74EFEB0B1236C92
:10172C00042B0CD00123B4E72268136843F4007334
:10173C0013600123ADE72368FFB21F61E9E722685C
:10174C00136843F4007313600123A2E72268136843
:10175C0043F48073136000950A9B00224FF0011133
:10176C002046FFF74BFD08B1012392E7236846F0B2
:10177C0001061E612B460A9A04492046FFF776FDA6
:10178C000346002885D0012383E700BF0200010037
:10179C0070B504460D46164623685B6913F0040FBA
:1017AC001CD12046FFF711FDD0B9B5F1FF3FF3D0A6
:1017BC00FEF71EFD801B854201D3002DECD10023CA
:1017CC002363202284F83D2084F83E30226C42F0C2
:1017DC002002226484F83C30012070BD002070BDD2
:1017EC00012070BD70B505460C4616462B685A692B
:1017FC0012F0400F29D15A6912F0100F15D1FEF7D3
:10180C00F7FC801BA04201D8002CEFD100232B63E6
:10181C00202285F83D2085F83E302A6C42F02002CB
:10182C002A6485F83C30012070BD6FF010025A61BB
:10183C0000232B63202285F83D2085F83E302A6C4E
:10184C002A6485F83C30012070BD002070BD00007A
:10185C00002800F0BE80F8B5044690F83D30002B0F
:10186C006BD0242384F83D302268136823F00103E5
:10187C00136000F08BFF6268584B9A4262D8584B49
:10188C0098428CBF00230123002B40F0A480554BC1
:10189C00A3FB00239A0C21684B6823F03F031343EE
:1018AC004B602568296A21F03F0166684B4B9E42CC
:1018BC004ED8531C0B432B622268D16921F44F4143
:1018CC0021F0FF016368454DAB424BD801385B00FA
:1018DC00B0FBF3F30133C3F30B03042B38BF042326
:1018EC000B43D36121680B6823F0C003E269206AC3
:1018FC00024313430B6021688B6823F4034323F0EA
:10190C00FF032269E068024313438B602168CB68B4
:10191C0023F0FF036269A06902431343CB60226882
:10192C00136843F00103136000202064202384F823
:10193C003D30206384F83E00F8BD80F83C3002F066
:10194C00E1F88EE7284B98428CBF002301239BE7DC
:10195C004FF4967303FB02F3244AA2FB03239B0967
:10196C000133A7E7A668BEB9451E03EB4307B5FBD9
:10197C00F7F50135C5F30B05B5FA85F56D0935BBE2
:10198C00C6B9013803EB4303B0FBF3F30133C3F3E4
:10199C000B0343F40043A3E7451E03EB830707EB5C
:1019AC008707B5FBF7F50135C5F30B05B5FA85F5DA
:1019BC006D09E4E7013803EB830303EB8303B0FB0E
:1019CC00F3F30133C3F30B0343F4404388E70123E0
:1019DC0086E7012070470120F8BD00BFA0860100FA
:1019EC007F841E0083DE1B43FF083D00D34D621035
:1019FC002DE9F04184B004460D4690461F46FEF793
:101A0C00F7FB94F83D30DBB2202B04D0022528469E
:101A1C0004B0BDE8F08106460090192301224F491D
:101A2C002046FFF7EBFB08B10225F0E794F83C30B9
:101A3C00012B00F08E80012384F83C3023681A6857
:101A4C0012F0010F03D11A6842F001021A602268E9
:101A5C00136823F400631360212384F83D301023B2
:101A6C0084F83E3000232364C4F824806785638D9A
:101A7C0023853B4BE36233460A9A29462046FFF7FF
:101A8C0047FC0546002866D10023039323685A6956
:101A9C0003929B690393039B12E0236C042B01D0EC
:101AAC000125B4E72268136843F400731360012521
:101ABC00ADE732460A992046FFF76AFE00282ED180
:101ACC00238D002B37D032460A992046FFF774FC41
:101ADC000028E2D12368626A12781A61616A4B1C91
:101AEC006362638D9BB2013B9BB26385238D013B8B
:101AFC009BB223852268506910F0040FD9D0002BBB
:101B0C00D7D04B781361636A01336362638D9BB2E8
:101B1C00013B9BB26385238D013B2385C9E7236C75
:101B2C00042B01D0012572E72268136843F400737B
:101B3C00136001256BE72268136843F4007313608C
:101B4C00202384F83D30002384F83E3084F83C3068
:101B5C005DE702255BE7012559E700BF0200100095
:101B6C000000FFFF2DE9F04186B004460D461746F4
:101B7C009846FEF73DFB94F83D30DBB2202B04D0A9
:101B8C000225284606B0BDE8F081064600901923D0
:101B9C00012295492046FFF731FB08B10225F0E7F9
:101BAC0094F83C30012B00F05A81012384F83C302E
:101BBC0023681A6812F0010F03D11A6842F001026F
:101BCC001A602268136823F400631360222384F8DC
:101BDC003D30402384F83E30002323640C9B636229
:101BEC00BDF834306385814BE362638D23850196A8
:101BFC000E9B009343463A4629462046FFF706FCC7
:101C0C00054660B1236C042B04D0002384F83C30CF
:101C1C000325B6E7002384F83C300125B1E7238D7A
:101C2C005BB9029323685A6902929A690292029AEA
:101C3C001A6842F400721A6082E0012B0FD0022B5A
:101C4C0021D02268136843F480631360002305934A
:101C5C0023685A6905929B690593059B70E022687D
:101C6C00136823F48063136072B600230393236814
:101C7C005A6903929A690392039A1A6842F40072A1
:101C8C001A6062B65CE02268136843F40063136068
:101C9C0072B60023049323685A6904929A690492D9
:101CAC00049A1A6822F480621A6062B648E03246DE
:101CBC000E992046FFF796FD70B9636A5A1C626252
:101CCC00226812691A70238D013B2385638D9BB2A8
:101CDC00013B9BB2638533E0236C202B01D00125A3
:101CEC004FE703254DE700960E9B00224049204606
:101CFC00FFF784FA002840F0B48072B622681368AB
:101D0C0043F400731360636A5A1C6262226812699E
:101D1C001A70238D013B2385638D9BB2013B9BB2D3
:101D2C00638562B6636A5A1C6262226812691A7011
:101D3C00238D013B2385638D9BB2013B9BB2638555
:101D4C00238D002B00F08280032B53D8012BAED0B7
:101D5C00022BC8D000960E9B002225492046FFF787
:101D6C004DFA00287FD12268136823F48063136036
:101D7C0072B6636A5A1C6262226812691A70238DE9
:101D8C00013B2385638D9BB2013B9BB2638500961F
:101D9C000E9B002216492046FFF730FA002864D12A
:101DAC002268136843F400731360636A5A1C6262FE
:101DBC00226812691A70238D013B2385638D9BB2B7
:101DCC00013B9BB2638562B6636A5A1C62622268ED
:101DDC0012691A70238D013B2385638D9BB2013BE5
:101DEC009BB26385ACE700BF020010000000FFFF50
:101DFC000400010032460E992046FFF7F3FC00BBAD
:101E0C00636A5A1C6262226812691A70238D013B44
:101E1C002385638D9BB2013B9BB2638523685A6912
:101E2C0012F0040F8CD0626A511C61621B69137032
:101E3C00238D013B2385638D9BB2013B9BB2638554
:101E4C007EE7236C202B12D103259AE6202384F8FD
:101E5C003D30002384F83E3084F83C3091E6022576
:101E6C008FE603258DE603258BE6032589E6012500
:101E7C0087E600BF2DE9F04186B004460D461746B3
:101E8C009846FEF7B5F994F83D30DBB2202B04D020
:101E9C000225284606B0BDE8F081064600901923BD
:101EAC00012290492046FFF7A9F908B10225F0E775
:101EBC0094F83C30012B00F04D81012384F83C3028
:101ECC0023681A6812F0010F03D11A6842F001025C
:101EDC001A602268136823F400631360222384F8C9
:101EEC003D30402384F83E30002323640C9B636216
:101EFC00BDF834306385638D23857B4BE36201969B
:101F0C000E9B009343463A4629462046FFF7A6FB14
:101F1C000546002840F02081238D5BB9029323688D
:101F2C005A6902929A690292029A1A6842F40072F1
:101F3C001A6080E0012B0FD0022B21D0226813688D
:101F4C0043F4806313600023059323685A69059258
:101F5C009B690593059B6EE02268136823F48063EC
:101F6C00136072B60023039323685A6903929A692B
:101F7C000392039A1A6842F400721A6062B65AE02D
:101F8C002268136843F40063136072B60023049351
:101F9C0023685A6904929A690492049A1A6822F482
:101FAC0080621A6062B646E032460E992046FFF710
:101FBC0019FC002840F0D280636A226812691A70FA
:101FCC00636A01336362238D013B2385638D9BB26E
:101FDC00013B9BB263852EE000960E9B0022434989
:101FEC002046FFF70BF9002840F0BA8072B6226841
:101FFC00136843F400731360636A226812691A70E1
:10200C00636A01336362238D013B2385638D9BB22D
:10201C00013B9BB2638562B6636A226812691A70CF
:10202C00636A01336362238D013B2385638D9BB20D
:10203C00013B9BB26385238D002B00F08280032B28
:10204C0056D8012BB0D0022BC6D000960E9B002286
:10205C0026492046FFF7D2F8002840F083802268FA
:10206C00136823F48063136072B6636A2268126982
:10207C001A70636A01336362238D013B2385638D80
:10208C009BB2013B9BB2638500960E9B00221749C5
:10209C002046FFF7B3F8002866D12268136843F492
:1020AC0000731360636A226812691A70636A0133E1
:1020BC006362238D013B2385638D9BB2013B9BB2F5
:1020CC00638562B6636A226812691A70636A0133A7
:1020DC006362238D013B2385638D9BB2013B9BB2D5
:1020EC006385A8E7020010000000FFFF0400010058
:1020FC0032460E992046FFF775FB002836D1636AED
:10210C00226812691A70626A531C6362238D013B48
:10211C002385638D9BB2013B9BB263852368596910
:10212C0011F0040F87D01B695370636A013363622B
:10213C00238D013B2385638D9BB2013B9BB2638551
:10214C0079E7202384F83D30002384F83E3084F86E
:10215C003C309EE602259CE601259AE6012598E690
:10216C00012596E6012594E6012592E6012590E6E7
:10217C0082B0084B1B68084AA2FB03235B0A00FBD6
:10218C0003F0019000BF019B5A1E0192002BF9D164
:10219C0002B0704740000020D34D6210002800F0C0
:1021AC00F58170B582B00446036813F0010F3DD081
:1021BC00AB4B5B6803F00C03042B2ED0A84B5B6875
:1021CC0003F00C03082B23D06368B3F5803F51D088
:1021DC00002B55D103F1804303F504331A6822F424
:1021EC0080321A601A6822F480221A606368002B0D
:1021FC0060D0FDF7FDFF0546994B1B6813F4003FBB
:10220C0014D1FDF7F5FF401B6428F5D90320C2E17A
:10221C00934B5B6813F4803FD6D0914B1B6813F43F
:10222C00003F03D06368002B00F0B281236813F0E9
:10223C00020F65D08A4B5B6813F00C0F4ED0884BA5
:10224C005B6803F00C03082B43D02369002B79D077
:10225C000122844B1A60FDF7CBFF0546804B1B68AF
:10226C0013F0020F65D1FDF7C3FF401B0228F5D90F
:10227C00032090E17A4A136843F480331360B5E786
:10228C00B3F5A02F09D0764B1A6822F480321A606D
:10229C001A6822F480221A60A8E703F18043A3F5A0
:1022AC003C331A6842F480221A601A6842F4803275
:1022BC001A609BE7FDF79CFF0546694B1B6813F4FE
:1022CC00003FB3D0FDF794FF401B6428F5D90320E1
:1022DC0061E1634B5B6813F4803FB6D1604B1B68C4
:1022EC0013F0020F04D02369012B01D0012052E11D
:1022FC005B4A136823F0F803616943EAC103136076
:10230C00236813F0080F32D0A369002B6ED0012282
:10231C00554B1A60FDF76CFF0546514B5B6A13F089
:10232C00020F21D1FDF764FF401B0228F5D90320D1
:10233C0031E14B4A136823F0F803616943EAC103A6
:10234C001360DDE70022474B1A60FDF751FF05468D
:10235C00434B1B6813F0020FD2D0FDF749FF401B13
:10236C000228F5D9032016E10120FFF701FF2368AD
:10237C0013F0040F00F09880394BDB6913F0805F89
:10238C0046D1374BDA6942F08052DA61DB6903F0EF
:10239C0080530193019B0125344B1B6813F4807F00
:1023AC0038D0E368012B49D0002B4DD103F1804389
:1023BC0003F504331A6A22F001021A621A6A22F037
:1023CC0004021A62E368002B5CD0FDF711FF06468D
:1023DC00234B1B6A13F0020F65D1FDF709FF801B1D
:1023EC0041F288339842F3D90320D4E000221E4BEB
:1023FC001A60FDF7FDFE0546194B5B6A13F0020FE0
:10240C00B5D0FDF7F5FE401B0228F5D90320C2E03C
:10241C000025C1E7154A136843F480731360FDF778
:10242C00E7FE0646114B1B6813F4807FB9D1FDF70C
:10243C00DFFE801B6428F5D90320ACE0084A136A40
:10244C0043F001031362BDE7052B11D0044B1A6A4C
:10245C0022F001021A621A6A22F004021A62B1E72F
:10246C0000100240000042428004424200700040D2
:10247C004C4B1A6A42F004021A621A6A42F00102C8
:10248C001A629FE7FDF7B4FE0646464B1B6A13F033
:10249C00020F08D0FDF7ACFE801B41F28833984246
:1024AC00F3D9032077E0E5B9E369002B72D03D4AFC
:1024BC00526802F00C02082A56D0022B17D00022C8
:1024CC00394B1A60FDF794FE0446364B1B6813F02B
:1024DC00007F47D0FDF78CFE001B0228F5D90320A6
:1024EC0059E0304AD36923F08053D361DCE70022F2
:1024FC002D4B1A60FDF77CFE05462A4B1B6813F02A
:10250C00007F06D0FDF774FE401B0228F5D903208E
:10251C0041E0236AB3F5803F1AD022494B6823F47B
:10252C007413226A606A024313434B6001221E4BF0
:10253C001A60FDF75DFE04461A4B1B6813F0007F12
:10254C000ED1FDF755FE001B0228F5D9032022E021
:10255C00144A536823F40033A1680B435360DCE73F
:10256C00002018E0002016E0012B16D00D4B5B6804
:10257C0003F48031226A914201D001200BE003F474
:10258C007013626A93420AD0012004E00120704764
:10259C00012000E0002002B070BD0120FBE700200C
:1025AC00F9E700BF001002406000424210B586B04F
:1025BC00154C94E80F000DF1180E0EE90F00238A4C
:1025CC00ADF80430114B5B6803F00C02082A18D1EB
:1025DC00C3F38342724412F8102C13F4803F03D1DE
:1025EC000B4800FB02F00DE0084B5B68C3F3404363
:1025FC00734413F8143C074800FB02F0B0FBF3F0F3
:10260C0000E0044806B010BD384600080010024037
:10261C0000093D0000127A00002800F0A38070B57C
:10262C000446524B1B6803F007038B420CD24F4AF3
:10263C00136823F007030B431360136803F00703BD
:10264C00994201D0012070BD236813F0020F17D0FE
:10265C0013F0040F04D0464A536843F4E06353600C
:10266C00236813F0080F04D0414A536843F46053B5
:10267C0053603F4A536823F0F003A0680343536050
:10268C000D46236813F0010F31D06368012B20D065
:10269C00022B25D0364A126812F0020F64D034494E
:1026AC004A6822F0030213434B60FDF7A1FD064676
:1026BC002F4B5B6803F00C036268B3EB820F16D0F0
:1026CC00FDF796FD801B41F288339842F0D9032028
:1026DC0070BD274A126812F4003FE0D1012070BD92
:1026EC00234A126812F0007FD9D1012070BD1F4B14
:1026FC001B6803F007039D420CD21C4A136823F09D
:10270C0007032B431360136803F007039D4201D0AA
:10271C00012070BD236813F0040F06D0144A5368CF
:10272C0023F4E063E1680B435360236813F0080F54
:10273C0007D00F4A536823F46053216943EAC1035D
:10274C005360FFF733FF0A4B5B68C3F30313094A6B
:10275C00D35CD840084B1860084B1868FDF706FD91
:10276C00002070BD01207047012070BD0020024088
:10277C0000100240604600084000002004000020C9
:10278C00014B1868704700BF4000002008B5FFF7E8
:10279C00F7FF044B5B68C3F30223034AD35CD840B6
:1027AC0008BD00BF001002407046000808B5FFF7D6
:1027BC00E7FF044B5B68C3F3C223034AD35CD840E6
:1027CC0008BD00BF001002407046000870B582B012
:1027DC000446036813F0010F34D03E4BDB6913F051
:1027EC00805F48D13B4BDA6942F08052DA61DB6999
:1027FC0003F080530193019B0125374B1B6813F4A5
:10280C00807F3AD0334B1B6A13F4407311D062684B
:10281C0002F4407293420CD02E4A136A23F4407097
:10282C002E4901260E6000260E60106213F0010F77
:10283C0037D1284A136A23F4407361680B4313623F
:10284C00002D3FD1236813F0020F06D0214A5368A4
:10285C0023F44043A1680B435360236813F0100F1B
:10286C0035D01C4A536823F48003E1680B43536052
:10287C00002002B070BD0025BFE7174A136843F46F
:10288C0080731360FDF7B4FC0646134B1B6813F4FE
:10289C00807FB7D1FDF7ACFC801B6428F5D90320F1
:1028AC00E7E7FDF7A5FC06460A4B1B6A13F0020F7F
:1028BC00BFD1FDF79DFC801B41F288339842F3D9C0
:1028CC000320D6E7D36923F08053D361BAE7002005
:1028DC00CFE700BF001002400070004040044242AD
:1028EC0030B587B00546384C94E80F000DF1180E42
:1028FC000EE90F00238AADF80430022D53D0102DB1
:10290C0003D0012D2BD0002057E0304B5A681B68A8
:10291C0013F0807F53D0C2F3834306A90B4413F802
:10292C00100C12F4803F16D0284B5B68C3F3404365
:10293C000B4413F8142C264BB3FBF2F303FB00F0FF
:10294C00224B5B6813F4800F37D14000214BA3FB63
:10295C000030400831E0204B03FB00F0F0E71B4B4C
:10296C001B6A40F202321A40B2F5817F29D003F47F
:10297C004073B3F5007F04D0B3F5407F09D000203D
:10298C001BE0124A526A12F0020FF5D049F6404091
:10299C0013E00E4B1B6813F4003F02D04FF224409F
:1029AC000BE0002009E0FFF701FF084B5B68C3F365
:1029BC00813301335B00B0FBF3F007B030BD002076
:1029CC00FBE74FF40040F8E74C46000800100240CB
:1029DC0000127A00ABAAAAAA00093D0010B4036A3F
:1029EC00046A24F001040462846924F0F00444EACB
:1029FC00021223F00A030B438261036210BC70477E
:102A0C0010B4036A23F0100303628469036A24F48C
:102A1C00704444EA023223F0A00343EA01138261BA
:102A2C00036210BC7047836823F07003194341F0B4
:102A3C000701816070470268D36843F00103D360DB
:102A4C000268936803F00703062B03D0136843F066
:102A5C000103136000207047704770477047704740
:102A6C0010B5044603681A6912F0020F11D0DA6827
:102A7C0012F0020F0DD06FF002021A6101230377DE
:102A8C0003689B6913F0030F70D0FFF7E6FF002378
:102A9C00237723681A6912F0040F12D0DA6812F047
:102AAC00040F0ED06FF004021A61022323772368FF
:102ABC009B6913F4407F5FD02046FFF7CEFF0023C5
:102ACC00237723681A6912F0080F12D0DA6812F013
:102ADC00080F0ED06FF008021A61042323772368C5
:102AEC00DB6913F0030F4ED02046FFF7B6FF00232F
:102AFC00237723681A6912F0100F12D0DA6812F0DB
:102B0C00100F0ED06FF010021A6108232377236880
:102B1C00DB6913F4407F3DD02046FFF79EFF002376
:102B2C00237723681A6912F0010F03D0DA6812F0C8
:102B3C00010F36D123681A6912F0800F03D0DA68BE
:102B4C0012F0800F34D123681A6912F0400F03D0B1
:102B5C00DA6812F0400F32D123681A6912F0200F94
:102B6C0003D0DA6812F0200F30D110BDFFF774FFDC
:102B7C002046FFF773FF8AE72046FFF76DFF2046DC
:102B8C00FFF76CFF9BE72046FFF766FF2046FFF739
:102B9C0065FFACE72046FFF75FFF2046FFF75EFFBF
:102BAC00BDE76FF001021A61204600F0DDFEC1E7BF
:102BBC006FF080021A61204600F001F9C3E76FF054
:102BCC0040021A612046FFF74AFFC5E76FF020026A
:102BDC001A61204600F0F2F8C7E7000003681C4AAF
:102BEC00904227D0B0F1804F24D0A2F5943290427D
:102BFC0020D002F5806290421CD0154A90421ED023
:102C0C00B0F1804F1BD0A2F59432904217D002F550
:102C1C008062904213D023F080034A69134303600F
:102C2C008B68C3620B688362094B98420CD00123FA
:102C3C004361704723F070034A681343DDE723F4C4
:102C4C004073CA681343E6E70B690363EFE700BF01
:102C5C00002C0140A8B110B5044690F83D305BB192
:102C6C00022384F83D30211D2068FFF7B7FF0123B4
:102C7C0084F83D30002010BD80F83C3000F074FF2B
:102C8C00EEE70120704710B4846824F47F4442EAD4
:102C9C00032319430C43846010BC704790F83C30FC
:102CAC00012B66D010B50446012380F83C3002237A
:102CBC0080F83D300268936823F47F4323F0770358
:102CCC0093600B68402B4AD013D9602B3DD01ED992
:102CDC00702B28D0B3F5005F30D1CB684A68896877
:102CEC000068FFF7D0FF2268936843F48043936039
:102CFC0024E0102B06D004D9202B03D0302B01D08C
:102D0C001CE0DBB919462068FFF78DFE16E0502B4E
:102D1C0014D1CA6849680068FFF760FE502120682A
:102D2C00FFF781FE0AE0CB684A6889680068FFF704
:102D3C00AAFF2268936843F077039360012384F819
:102D4C003D30002084F83C0010BDCA68496800681A
:102D5C00FFF756FE60212068FFF765FEEEE7CA68B4
:102D6C0049680068FFF73AFE40212068FFF75BFED8
:102D7C00E4E70220704790F83C30012B1CD070B473
:102D8C00012580F83C50022380F83D3004686268CD
:102D9C00A36822F070020E68324323F08003496866
:102DAC000B4362600268936080F83D50002380F80A
:102DBC003C30184670BC7047022070477047704713
:102DCC0038B504460268136923F44053C1680B43B9
:102DDC001361836802691343426913430168CA682B
:102DEC0022F4B05222F00C021343CB6002685369F8
:102DFC0023F4407381690B4353610268214B9A425F
:102E0C001FD0FFF7C3FC216800EB800000EB8000B3
:102E1C0063689B00B0FBF3F01B4DA5FB003254091B
:102E2C00642202FB140213013233A5FB03235B095A
:102E3C0003F0F00202EB041203F00F0313448B6057
:102E4C0038BDFFF7B3FC216800EB800000EB80007D
:102E5C0063689B00B0FBF3F00B4DA5FB00325409EB
:102E6C00642202FB140213013233A5FB03235B091A
:102E7C0003F0F00202EB041203F00F0313448B6017
:102E8C0038BD00BF003801401F85EB512DE9F041E2
:102E9C0005460F4616469846069C2B681B6837EA73
:102EAC0003030CBF01230023B3421ED1B4F1FF3F37
:102EBC00F3D02CB1FDF79CF9A0EB08008442ECD2C6
:102ECC002A68D36823F4D073D3602A68536923F03B
:102EDC0001035361202385F8393085F83A300023FB
:102EEC0085F838300320BDE8F0810020BDE8F08182
:102EFC0058B310B5044690F839300BB3242384F83A
:102F0C0039302268D36823F40053D3602046FFF78E
:102F1C0057FF2268136923F49043136122685369A5
:102F2C0023F02A0353612268D36843F40053D3601F
:102F3C000020E063202384F8393084F83A3010BD47
:102F4C0080F8383000F040FED8E7012070472DE9BA
:102F5C00F04182B01E4690F83930DBB2202B04D001
:102F6C000223184602B0BDE8F08104460D46904697
:102F7C00002955D0002A55D090F83830012B01D1BA
:102F8C000223EEE7012380F838300023C3632123AA
:102F9C0080F83930FDF72CF90746A4F82480A4F802
:102FAC00268010E000963B46002280212046FFF749
:102FBC006DFF002838D122682B88C3F308035360B7
:102FCC002369CBB90235E38C9BB2BBB1E38C9BB2CA
:102FDC00013B9BB2E384A368B3F5805FE2D000961B
:102FEC003B46002280212046FFF750FFF0B92368B2
:102FFC002A785A600135E6E70135E4E700963B464E
:10300C00002240212046FFF741FF034608B103236D
:10301C00A7E7202284F83920002284F83820A0E782
:10302C0001239EE701239CE703239AE7032398E7F8
:10303C0010B5094C2160094B024621460848FDF7A2
:10304C00FFFC00B110BD4FF4006100F1804000F5B1
:10305C008430FEF7B3F8F5E75C0500204804002047
:10306C00EC03002010B5464B1B88464803701B0A26
:10307C004370454B1B8883701B0AC370434C2388D9
:10308C0003711B0A4371B4F9023083711B12C371B3
:10309C00AA21FFF7CDFF63683D4803701A0A4270FE
:1030AC001A0C82701B0EC370A36803711A12427142
:1030BC001A1482711B16C371AB21FFF7B9FF354B84
:1030CC00B3F900203448027012124270B3F9022096
:1030DC0082701212C270B3F9042002711212427182
:1030EC00B3F9063083711B12C3719C21FFF7A0FF4B
:1030FC00B4F90C30294803701B124370B4F90E302C
:10310C0083701B12C370B4F9103003711B1243711E
:10311C00B4F9123083711B12C3719D21FFF788FF24
:10312C00B4F914301E4803701B124370B4F91630F6
:10313C0083701B12C370B4F9183003711B124371E6
:10314C00B4F91A3083711B12C3719E21FFF770FF03
:10315C00B4F91C30134803701B124370B4F91E30C1
:10316C0083701B12C370B4F9203003711B124371AE
:10317C0000238371C3719F21FFF75AFF10BD00BF5D
:10318C001C040020E403002044040020080000205C
:10319C00800300202C030020340400207403002042
:1031AC004C0400202004002000B585B04FF47A7345
:1031BC000293022301930A4B00930423094AC02172
:1031CC000948FEF7CFFC0028F0D1054B1A78587847
:1031DC00000200B21043588105B05DF804FB00BF3B
:1031EC00C4000020010092028803002008B5FFF7FC
:1031FC00DBFFC0F3852080F0010000F0010008BD6A
:10320C0000B585B000220F4B1A70642302934FF463
:10321C00827301930C4B009301230022A1210B48D4
:10322C00FEF728FE0028F0D1002205E0054B1344E0
:10323C00197B83F810110132B2F5827FF6DB05B0F1
:10324C005DF804FBC4000020D0000020880300209F
:10325C0000B583B00E4B04221A7093F8E62102F1EC
:10326C00560159709A705622DA7000221A71094B65
:10327C00598C490089B2642300930523044A0648FB
:10328C00FEF7B6FB0028F2D103B05DF804FB00BFDB
:10329C00C4000020080000208803002000B583B083
:1032AC00104B03221A70E6225A703B229A70AF22FE
:1032BC00DA7004221A710C4B598C490089B26423C0
:1032CC0000930523074A0948FEF792FB0028F2D128
:1032DC00FFF76AFFC0F30110024BA3F8140203B00E
:1032EC005DF804FBC40000200800002088030020C7
:1032FC0010B586B0294B00221A605A609A60DA60C9
:10330C004FF47A73029380230193254B009304238B
:10331C00244AC0212448FEF725FC04460028EFD19E
:10332C000023059303460EE0059A01321C49885C84
:10333C00059A8A5C42EA00221C4921F81320059A5E
:10334C000232059201333F2BEEDD07E08910134B5F
:10335C0023F81410164800F0DDF901340F2C18DC9A
:10336C00124B33F8141004F1100233F812201144EC
:10337C0089B204F1200233F81220114489B204F10D
:10338C00300233F81230194409B20029DEDA033165
:10339C00DCE7084800F0BEF906B010BD2C03002095
:1033AC00C4000020400100028803002074050020A6
:1033BC007C4600088046000808B5FFF721FFFFF7A0
:1033CC0047FFFFF76BFF08BD08B50C4B93F81A329B
:1033DC00102B08D0094A92F81A32013382F81A32AB
:1033EC00FFF786FF08BDFFF701FF20B90022034B52
:1033FC0083F81A22EEE7FFF7DFFFF7E7C40000209F
:10340C0038B504460D46FDF7A5F829462046FCF7CD
:10341C0009FF2046FCF7BEFF81B2034C2180034814
:10342C0000F078F9208838BD30040020844600086C
:10343C002DE9F04188B00024049405940694079477
:10344C002A4B9A6942F020029A619A6902F0200292
:10345C000192019A9A6942F004029A619A6902F007
:10346C0004020292029A9A6942F008029A619B69DC
:10347C0003F008030393039B1D4E22464FF4006197
:10348C003046FDF795FE1B4D224610212846FDF7D0
:10349C008FFE4FF4006304934FF00108CDF81480B5
:1034AC0006940227079704A93046FDF789FD4FF4CF
:1034BC00805304930594069404A93046FDF780FDCF
:1034CC00082304930594069404A92846FDF778FD77
:1034DC0010230493CDF81480069407970DEB030189
:1034EC002846FDF76DFD08B0BDE8F08100100240E4
:1034FC0000080140000C014070B51B4D1B4B2B60AC
:10350C0009236B600024AC60EC604FF4A0232B61AA
:10351C006C612C7601266E76AC76EC762C776C771B
:10352C002846FDF73BF912494C618C61CE6149F696
:10353C0099130B604C608B60CC600C610E620E2397
:10354C004B622846FDF7D0F92846FDF74BFA0321CC
:10355C002846FDF784FB074B5E60DC609C6008220C
:10356C001A611C7570BD00BFEC03002000640040A4
:10357C004C0300205C05002070B584B0002501953B
:10358C00029503950C4C0D4B2360A5602573257596
:10359C004FF46023E3616560012626612046FDF748
:1035AC0075F804230193029603950DEB0301204655
:1035BC00FCF7F4FE04B070BD880600200024014026
:1035CC0070B584B000250195029503950C4C0D4BFC
:1035DC002360A560257325754FF46023E361656056
:1035EC00012626612046FDF751F809230193029626
:1035FC00039501A92046FCF7D1FE04B070BD00BFB5
:10360C00100600200028014008B50948094B03604A
:10361C00094B436000238360C3604FF48042026116
:10362C0043618361C3610362FEF712F908BD00BFF9
:10363C008803002000580040A086010030B587B0F8
:10364C0000240294039404940594009401940F4D67
:10365C004FF080432B604FF4E1536B60AC6031232F
:10366C00EB602C61AC612846FFF7F4FA4FF4805301
:10367C00029302A92846FFF711FB009401946946B6
:10368C002846FFF778FB07B030BD00BFF8060020D6
:10369C0030B587B0002402940394049405940094EC
:1036AC0001940F4D0F4B2B604FF4E1536B60AC60EA
:1036BC0040F21F33EB602C61AC612846FFF7CAFA6D
:1036CC004FF48053029302A92846FFF7E7FA0094BF
:1036DC00019469462846FFF74EFB07B030BD00BF8A
:1036EC00480600200004004008B50848084B036059
:1036FC004FF4E133436000238360C36003610C2209
:10370C0042618361C361FFF7F3FB08BDB80600207B
:10371C00003801400FB400B59BB01CAA52F8041B32
:10372C0000238DF80430009201A800F061FB0A23FD
:10373C00C2B201A90348FFF70AFC1BB05DF804EB09
:10374C0004B07047B806002030B595B0282200218F
:10375C000DEB020000F02CFB00240594069407945A
:10376C0008940994019402940394049401220A92FB
:10377C004FF480330B930E920225119512934FF454
:10378C00E01313930AA8FEF709FD0F230593069582
:10379C0007944FF4806308930994294605A8FEF713
:1037AC003BFF01954FF40043039301A8FFF70EF87C
:1037BC0015B030BD08B5FCF7FDFCFFF7C5FFFFF7F2
:1037CC0037FEFFF799FEFFF7D7FEFFF7F9FEFFF77D
:1037DC001BFFFFF733FFFFF75BFFFFF785FF0E487B
:1037EC00FFF729F90D48FFF726F90520FCF706FD30
:1037FC00FFF7E2FDFFF7E8FD04210948FFF700FEA3
:10380C00084B188009210848FFF7FAFD074B188070
:10381C00FFF728FCEEE700BFF80600204806002062
:10382C008806002044060020100600207C0300209F
:10383C007047000010B582B002AC44F8040D044B84
:10384C00044A00212046FDF770F902B010BD00BFFC
:10385C0054040020F405002008B52D48FFF700F9AA
:10386C004FF400612B48FDF7A9FC2B4B1A682B4B2E
:10387C001A602B4B1B78062B04D0294A1378013382
:10388C00137008BD274BB3F90010274A1180B3F908
:10389C000210264A1180B3F90410254A1180B3F99D
:1038AC000610244A1180B3F90810234A1180B3F989
:1038BC000A10224A1180B3F90C10214A1180B3F975
:1038CC000E10204A1180B3F910101F4A1180B3F961
:1038DC0012101E4A1180B3F914101D4A1180B3F94D
:1038EC0016101C4A1180B3F918101B4A1180B3F939
:1038FC001A101A4A1180B3F91C10194A1180B3F925
:10390C001E20184B1A800022054B1A70B5E700BF19
:10391C0048060020000801400C0000203C0000205C
:10392C00140300202C0300200A0000203200002089
:10393C00300000202E0000202C000020140000205D
:10394C0016000020180000201A0000201C00002087
:10395C001E00002020000020220000202400002057
:10396C0026000020280000207047000082B00E4B7B
:10397C009A6942F001029A619A6902F0010200927E
:10398C00009ADA6942F08052DA61DB6903F0805305
:10399C000193019B054A536823F0E06343F00073E5
:1039AC00536002B0704700BF00100240000001409D
:1039BC0000B589B00023049305930693079303681D
:1039CC00204A934205D0204A93421ED009B05DF89C
:1039DC0004FB1E4B9A6942F400729A619A6902F4D4
:1039EC0000720092009A9A6942F004029A619B69F3
:1039FC0003F004030193019B102304930323059309
:103A0C0004A91348FDF7DCFAE0E7104B9A6942F47D
:103A1C0080629A619A6902F480620292029A9A69AF
:103A2C0042F008029A619B6903F008030393039B1D
:103A3C00022304930323059304A90648FDF7C0FA57
:103A4C00C4E700BF002401400028014000100240E0
:103A5C0000080140000C014030B587B000230293F0
:103A6C000393049305930268234B9A4201D007B049
:103A7C0030BD03F5D633DA6942F00072DA61DA69E7
:103A8C0002F000720092009A9A6942F008029A6160
:103A9C009B6903F008030193019B06AC4FF4807300
:103AAC0044F8103D154D21462846FDF789FA4FF490
:103ABC0000730293022303930323059321462846A4
:103ACC00FDF77EFA0E4A536823F4C04343F0E063DB
:103ADC0043F480435360002211461320FDF71AFA79
:103AEC001320FDF749FA002211461420FDF712FAB3
:103AFC001420FDF741FABAE700640040000C0140C5
:103B0C000000014010B586B0002302930393049388
:103B1C0005930268114B9A4201D006B010BD104CAF
:103B2C00A36943F00803A361A36903F0080300939E
:103B3C00009B4FF4406302931223039303230593DA
:103B4C0002A90848FDF73CFAE36943F48003E361FA
:103B5C00E36903F480030193019BDEE70058004006
:103B6C0000100240000C014000B583B00368B3F1B3
:103B7C00804F05D0124A934216D003B05DF804FB77
:103B8C0003F50433DA6942F00102DA61DB6903F010
:103B9C0001030093009B002211461C20FDF7BAF98B
:103BAC001C20FDF7E9F9E8E7064BDA6942F002025E
:103BBC00DA61DB6903F002030193019BDDE700BFCF
:103BCC00000400400010024010B586B000230293A0
:103BDC000393049305930268174B9A4201D006B0E5
:103BEC0010BD03F558439A6942F480429A619A6970
:103BFC0002F480420092009A9A6942F004029A619F
:103C0C009B6903F004030193019B4FF4007302932F
:103C1C000223039303230593084C02A92046FDF7C6
:103C2C00CFF94FF48063029300230393049302A90A
:103C3C002046FDF7C5F9D2E70038014000080140E5
:103C4C007047FEE7FEE7FEE7FEE7704770477047F8
:103C5C0008B5FCF7C1FA08BD08B50248FDF71CF819
:103C6C0008BD00BFEC03002008B50248FDF714F8AE
:103C7C0008BD00BFEC03002008B50248FEF7F0FEBB
:103C8C0008BD00BFF806002008B503460B4A1268B1
:103C9C0042B10A4A106803446A46934206D8074A5E
:103CAC00136008BD0649054A1160F2E700F056F8AA
:103CBC000C2303604FF0FF3008BD00BF1803002039
:103CCC00400700200F4B1A6842F001021A60596835
:103CDC000D4A0A405A601A6822F0847222F480322B
:103CEC001A601A6822F480221A605A6822F4FE02C2
:103CFC005A604FF41F029A604FF00062034B9A60B7
:103D0C00704700BF001002400000FFF800ED00E01B
:103D1C00002103E00B4B5B58435004310A480B4B1A
:103D2C0042189A42F6D30A4A02E0002342F8043BB6
:103D3C00084B9A42F9D3FFF7C5FF00F015F8FFF7CF
:103D4C0039FD7047CC46000800000020A800002078
:103D5C00A800002040070020FEE70000014B186877
:103D6C00704700BF4400002070B500250C4E0D4C70
:103D7C00A41BA410A54209D100F04CFC00250A4E4E
:103D8C000A4CA41BA410A54205D170BD56F82530D1
:103D9C0098470135EEE756F8253098470135F2E79C
:103DAC00C4460008C4460008C4460008C8460008BB
:103DBC0003460244934200D1704703F8011BF9E714
:103DCC0010B59AB0009104916FF0004102910591E9
:103DDC004FF6FF714FF40274ADF80E106946ADF852
:103DEC000C4000F06BF80022009B1A701AB010BD4A
:103DFC0013460A46014602480068FFF7E1BF00BFC0
:103E0C00440000202DE9F0478E6882469E420C4605
:103E1C009146984635D88A8912F4906F31D0022396
:103E2C00256809696F1A656905EB450595FBF3F57E
:103E3C0008F101033B449D4238BF1D46530531D563
:103E4C00294600F047FB064650B90C23CAF800304F
:103E5C00A3894FF0FF3043F04003A381BDE8F08706
:103E6C003A46216900F0C4FAA38923F4906343F025
:103E7C008003A38126613E44266046466561ED1BA6
:103E8C00A560464528BF464649463246206800F0A4
:103E9C00BAFAA36800209B1BA36023681E4426600B
:103EAC00BDE8F0872A4600F073FB06460028E1D1F6
:103EBC002169504600F0C2FAC7E700002DE9F04F27
:103ECC009DB003938B8980461C060D4616460FD574
:103EDC000B696BB9402100F0FDFA2860286128B904
:103EEC000C23C8F800304FF0FF30C4E040236B6166
:103EFC000023099320238DF8293030234FF0010B38
:103F0C008DF82A3037463C4614F8013B002B3CD147
:103F1C00B7EB060A0BD05346324629464046FFF70C
:103F2C0071FF013000F0A280099B534409933B7848
:103F3C00002B00F09B8000234FF0FF32049307937B
:103F4C00059206938DF853301A9305222178504828
:103F5C0000F040FA671C049BD8B9D90644BF202254
:103F6C008DF853201A0744BF2B228DF8532022784A
:103F7C002A2A16D000210A20079A27463B780134BA
:103F8C00303B092B50D9C9B111E0252BC0D02746A5
:103F9C00B9E73F4A3C46801A0BFA00F018430490EC
:103FAC00D3E7039A111D12680391002A01DB0792D3
:103FBC0004E0524243F00203079204933B782E2B09
:103FCC000DD17B78791C2A2B32D1039B02371A1D19
:103FDC001B680392002BB8BF4FF0FF3305932D4C99
:103FEC0003223978204600F0F5F938B14023001B44
:103FFC0003FA00F0049B013703430493397806223B
:10400C0025487E1C8DF8281000F0E4F9002835D0E6
:10401C00224BFBB9039B073323F0070308330393AD
:10402C00099B4B4409936DE700FB02320121A4E785
:10403C0000230A24184605930F463A780131303A8A
:10404C00092A03D9002BCAD00590C8E704FB00202D
:10405C000123F1E703AB00932A46114B04A9404618
:10406C00AFF30080B0F1FF3F8146D9D1AB895B063D
:10407C003FF539AF09981DB0BDE8F08F03AB009345
:10408C002A46074B04A9404600F084F8EAE700BF33
:10409C0090460008964600089A460008000000006A
:1040AC00113E00082DE9F04791461F468A680B69BE
:1040BC0006469342B8BF1346C9F8003091F8432026
:1040CC000C46DDF8208012B10133C9F800302368AA
:1040DC00990642BFD9F800300233C9F80030256880
:1040EC0015F0060507D104F1190AE368D9F8002088
:1040FC009B1A9D422ADB94F843302268003318BF88
:10410C00012392062FD404F1430239463046C047AE
:10411C00013022D02368E56803F00603042B18BF96
:10412C000025D9F800204FF0000908BFAD1AA3688C
:10413C00226908BF25EAE5759342C4BF9B1AED18A6
:10414C001A344D451BD10020BDE8F087012352469F
:10415C0039463046C047013003D14FF0FF30BDE83F
:10416C00F0870135C1E73020E11881F843005A1C73
:10417C0094F845102244023382F84310C3E701231C
:10418C00224639463046C0470130E6D009F10109D4
:10419C00D7E700002DE9F04317460A7E85B06E2A5A
:1041AC00984606460C460C9B01F1430E00F0BC8071
:1041BC001AD8632A2ED00AD8002A00F0C880582AB0
:1041CC0000F08A8004F1420584F842202AE0642A37
:1041DC0001D0692AF6D121681A6811F0800F23D01A
:1041EC00111D1960136827E0732A00F0B48008D8F9
:1041FC006F2A2AD0702AE5D10A6842F020020A60A0
:10420C0003E0752A21D0782ADCD178226F4984F812
:10421C00452064E01A6801F14205111D196013680C
:10422C0084F842300123A3E011F0400F02F10401A5
:10423C001960D7D0B2F90030002B03DA2D225B4283
:10424C0084F8432062490A2217E02068196810F0AC
:10425C00800F03D0081D18600B6806E010F0400FAB
:10426C0001F104001860F7D00B886F2A14BF0A22E2
:10427C0008225749002084F843006568002DA5608A
:10428C00C0F29C80206820F004002060002B3FD1FD
:10429C00002D40F095807546082A0BD12368DA076B
:1042AC0008D5236962689A42DEBF302305F8013CC9
:1042BC0005F1FF35AEEB05032361CDF800803B46DD
:1042CC0003AA21463046FFF7EDFE013055D14FF0E1
:1042DC00FF3005B0BDE8F08381F845203C492268E9
:1042EC00186812F0800F00F104051D6001D00368FE
:1042FC0002E05506FBD50388D00744BF42F02002EC
:10430C0022601BB9226822F0200222601022B1E741
:10431C007546B3FBF2F002FB1033CB5C05F8013DA4
:10432C0003460028F5D1B7E708681A6810F0800F2B
:10433C00496904D0101D18601368196007E010F06B
:10434C00400F02F1040018601368F6D019800023A6
:10435C0075462361B1E71A68111D196015680021B3
:10436C006268284600F036F808B1401B606063684C
:10437C002361002384F843309FE723692A4639469A
:10438C003046C0470130A2D023689B0707D50025D3
:10439C0004F11909E368039A9B1A9D4205DBE06856
:1043AC00039B9842B8BF184693E701234A46394607
:1043BC003046C04701308AD00135EBE7002BA7D13E
:1043CC000B7804F1420584F8423065E7B2460008E8
:1043DC00A146000810B5C9B202449042034601D16F
:1043EC00002010BD1C7801308C42F6D1184610BD4F
:1043FC0010B5431E0A44914200D110BD11F8014B77
:10440C0003F8014FF7E7884210B501EB020303D81C
:10441C00421E99420CD110BD9842F9D28118D21A81
:10442C00D34200D110BD13F8014D01F8014DF7E74F
:10443C0011F8014B02F8014FEBE7000038B50546C7
:10444C00002943D051F8043C0C1F002BB8BFE418D2
:10445C0000F0D4F81E4A1368104633B96360146038
:10446C002846BDE8384000F0CAB8A3420BD92168F1
:10447C006218934201BF1A685B685218226063602D
:10448C000460EDE713465A680AB1A242FAD91968DA
:10449C005818A0420BD12068014458188242196068
:1044AC00DED110685268014419605A60D8E702D90D
:1044BC000C232B60D4E7206821188A4201BF1168B5
:1044CC0052680918216062605C60C9E738BD00BFA2
:1044DC002003002070B5CD1C25F0030508350C2DEC
:1044EC0038BF0C25002D064601DBA94203D90C234D
:1044FC003360002070BD00F081F8234A1468214617
:10450C0091B9224C23681BB9304600F067F8206043
:10451C002946304600F062F8431C26D10C23304665
:10452C00336000F06CF8E4E70B685B1B1AD40B2BC0
:10453C000FD90B60CC18CD50304600F060F804F168
:10454C000B00231D20F00700C31A1BD05A42E25067
:10455C0070BD8C420BBF63684B681360636018BFFF
:10456C000C46E9E70C464968CAE7C41C24F003046E
:10457C00A04205D0211A304600F030F80130CDD0E1
:10458C002560D9E770BD00BF200300202403002064
:10459C00F8B5074614460E4621B91146BDE8F84059
:1045AC00FFF798BF22B9FFF749FF25462846F8BD0B
:1045BC0000F026F884420FD921463846FFF78AFFCF
:1045CC0005460028F2D031462246FFF711FF31464E
:1045DC003846FFF733FFE9E73546E7E738B5002300
:1045EC00054C054608462360FFF74EFB431C02D1E1
:1045FC00236803B12B6038BD3C070020704770471F
:10460C0051F8040C0028A0F10400BCBF0B58C018D2
:10461C0070470000F8B500BFF8BC08BC9E46704758
:0C462C00F8B500BFF8BC08BC9E46704703
:1046380002030405060708090A0B0C0D0E0F1010DB
:104648000102000002030405060708090A0B0C0D05
:104658000E0F101001020000000000000000000012
:104668000102030406070809000000000102030410
:1046780025640A00202564000A0000006164633A8A
:104688002025640A00000000232D302B2000686CD0
:104698004C0065666745464700303132333435365D
:1046A8003738394142434445460030313233343596
:0C46B800363738396162636465660000C3
:0446C40031010008B8
:0446C8000D010008D8
:1046CC0001000000100000000100010001000000CA
:1046DC0001000000010001000100010001000100C7
:1046EC000100010001000100010060000100010057
:1046FC00010001005000000001000000010000005A
:10470C000024F4004800002000000000000000001D
:10471C00000000000000000000000000000000008D
:10472C00000000000000000000000000000000007D
:10473C00000000000000000000000000000000006D
:10474C00000000000000000000000000000000005D
:10475C00000000000000000000000000000000004D
:08476C00000000000000000045
:0400000508003D1D95
:00000001FF
