:020000040800F2
:1000000000500020E52B0008252B0008272B0008B6
:10001000292B00082B2B00082D2B000800000000C6
:100020000000000000000000000000002F2B00086E
:10003000312B000800000000332B0008352B00088E
:100040002D2C00082D2C00082D2C00082D2C00082C
:100050002D2C00082D2C00082D2C00082D2C00081C
:100060002D2C00082D2C00082D2C00082D2C00080C
:100070002D2C00082D2C00082D2C00082D2C0008FC
:100080002D2C00082D2C00082D2C00083D2B0008DD
:100090004D2B00082D2C00082D2C00082D2C0008BD
:1000A0002D2C00082D2C00082D2C00082D2C0008CC
:1000B00011270008312700082D2C00082D2C0008DE
:1000C0002D2C00082D2C00082D2C00082D2C0008AC
:1000D0002D2C00082D2C00082D2C00082D2C00089C
:1000E0002D2C00082D2C00082D2C000800000000ED
:1000F0000000000000000000000000000000000000
:0C01000000000000000000005FF808F1A3
:10010C0010B5054C237833B9044B13B10448AFF345
:10011C0000800123237010BDA80000200000000007
:10012C00E83400080C4B43B10C4810B50C49AFF344
:10013C0000800C48036823B910BD0A48036833B922
:10014C007047094B002BF7D0BDE810401847064B01
:10015C00002BF5D0184700BF00000000E834000861
:10016C00AC000020A80000200000000010B50446E0
:10017C000E4B18784FF47A73B3FBF0F30C4A1068FB
:10018C00B0FBF3F000F06CFE68B90F2C01D9012024
:10019C0010BD002221464FF0FF3000F021FE034B32
:1001AC005C60002010BD012010BD00BF00000020CD
:1001BC004000002008B5074A136843F01003136091
:1001CC00032000F0FBFD0020FFF7D0FF02F032FB14
:1001DC00002008BD00200240034A1168034B1B7825
:1001EC000B441360704700BFD800002000000020B3
:1001FC00014B1868704700BFD800002038B5044682
:10020C00FFF7F6FF0546B4F1FF3F02D0044B1B7815
:10021C001C44FFF7EDFF401B8442FAD838BD00BFE9
:10022C0000000020F0B583B005460C460023019376
:10023C00FFF7DEFF2B689A6812F4807F23D1064605
:10024C005A6812F4807F03D1DB6A13F4700F24D048
:10025C004B4B1F68022001F0A7FBB7FBF0F72B6894
:10026C001969484A11422FD1D96802F15C421142F6
:10027C002AD11969444A114239D1DA68434B1A42DE
:10028C0037D029203AE0AB6A43F02003AB6200235D
:10029C0085F82430012003B0F0BD2B681B6813F0E7
:1002AC00020F48D1B4F1FF3FF7D024B1FFF7A0FF04
:1002BC00801B8442F1D2AB6A43F00403AB6200238F
:1002CC0085F824300320E6E719692F4A114204D13E
:1002DC00D96802F16E4211420DD019692C4A0A40BC
:1002EC005AB9DA682A4B13405BB1FC2006E029208E
:1002FC0004E0142002E0542000E0FC2007FB00F78F
:10030C0004E05420FAE7019B01330193019B9F42C7
:10031C0011D9B4F1FF3FF6D024B1FFF769FF801B70
:10032C008442F0D2AB6A43F00403AB62002385F83D
:10033C0024300320AFE72B686FF012021A60AB6A0F
:10034C0043F40073AB622B689B6803F46023B3F532
:10035C00602F01D000209EE72B7B6BB9AB6A23F496
:10036C008073AB62AB6A13F4805F07D1AB6A43F066
:10037C000103AB6200208EE700208CE700208AE7A7
:10038C0040000020244992249224491292244900CE
:10039C00499224000368D86C7047000030B482B0D6
:1003AC000023019390F82430012B00F08B8002463F
:1003BC00012380F824304B68062B29D80568686B1C
:1003CC0003EB8303053B1F249C4020EA04000C68CC
:1003DC0004FA03F303436B630B68092B38D91568D4
:1003EC00E86803EB43031E3B07249C4020EA04000F
:1003FC008C6804FA03F30343EB600B68103B012B8E
:10040C0034D90020002382F8243002B030BC70476D
:10041C000C2B0ED80568286B03EB8303233B1F249E
:10042C009C4020EA04000C6804FA03F303432B639A
:10043C00D2E70568E86A03EB8303413B1F249C4029
:10044C0020EA04000C6804FA03F30343EB62C3E7ED
:10045C001568286903EB430307249C4020EA040039
:10046C008C6804FA03F303432B61C6E71368164840
:10047C00834205D0936A43F0200393620120C1E7C5
:10048C00986810F4000F1BD1986840F40000986035
:10049C000B68102B01D00020B4E70C4B1B680C49E7
:1004AC00A1FB03139B0C03EB83035900019102E0A6
:1004BC00019B013B0193019B002BF9D10020A1E78B
:1004CC0000209FE70220A0E700240140400000200C
:1004DC0083DE1B4330B583B00023019303689A6815
:1004EC0012F0010F2ED19A6842F001029A60174B5C
:1004FC001B68174AA2FB03239B0C019302E0019B90
:10050C00013B0193019B002BF9D10446FFF770FED0
:10051C00054623689B6813F0010F11D1FFF768FEA5
:10052C00401B0228F5D9A36A43F01003A362E36AC7
:10053C0043F00103E362002384F82430012002E03D
:10054C00002000E0002003B030BD00BF40000020C0
:10055C0083DE1B4390F82430012B02D10223184672
:10056C00704710B50446012380F82430FFF7B2FF22
:10057C00034600285BD1A26A22F4407222F00102E9
:10058C0042F48072A26222682B498A4227D0A16A67
:10059C0021F48011A162516811F4806F05D0A16A19
:1005AC0021F4405141F48051A162A16A11F4805FA1
:1005BC002BD0E16A21F00601E162002184F82410BD
:1005CC006FF0020111602268916801F46021B1F5AD
:1005DC00602F1DD0916841F4801191602AE0A1F543
:1005EC008061496811F4702FD1D0A16A41F4801157
:1005FC00A1621249496811F4806FD6D0A16A21F426
:10060C00405141F48051A162CFE70021E162D4E76F
:10061C0009498A4204D0916841F4A001916009E033
:10062C00A1F58061496811F4702FD3D1F3E7002252
:10063C0084F82420184610BD0028014000240140F5
:10064C0038B503689A6812F0010F01D1002038BD4B
:10065C0004469A6822F001029A60FFF7C9FD05462C
:10066C0023689B6813F0010F0ED0FFF7C1FD401BF0
:10067C000228F5D9A36A43F01003A362E36A43F09E
:10068C000103E362012038BD002038BD00287FD073
:10069C0038B50446836A002B4AD02046FFF7D0FFBA
:1006AC00A36A13F010036DD100286BD1A26A22F457
:1006BC00885222F0020242F00202A2626268E169F0
:1006CC000A43257B42EA4502A168B1F5807F38D008
:1006DC00012933D0217D012936D02568696821F4A0
:1006EC0069410B436B6021688D682A4B2B40134387
:1006FC008B60A368B3F5807F37D0012B35D00023F6
:10070C002568E96A21F470010B43EB622368996850
:10071C00214B0B409A422CD0A36A23F0120343F0D6
:10072C001003A362E36A43F00103E362012038BDC6
:10073C00C36280F8243002F09FF8AEE74FF4807368
:10074C00C8E74FF48073C5E735B9A169013943EAAD
:10075C00413343F40063C0E7A16A41F02001A16278
:10076C00E16A41F00101E162B7E72369013B1B0536
:10077C00C6E70023E362A36A23F0030343F00103FB
:10078C00A36238BDA36A43F01003A362012038BDF5
:10079C0001207047FDF7E1FFFE0E1FFF002800F05F
:1007AC00A18038B5044690F82030D3B12268136884
:1007BC0023F002031360FFF71BFD054623685A68FC
:1007CC0012F0020F10D0FFF713FD401B0A28F5D9C9
:1007DC00636A43F400336362052384F820300120FC
:1007EC0038BD02F09DF8E1E71A6842F001021A6088
:1007FC00FFF7FEFC054623685A6812F0010F0DD175
:10080C00FFF7F6FC401B0A28F5D9636A43F4003362
:10081C006362052384F82030012038BD227E012A32
:10082C003DD01A6822F080021A60637E012B3BD007
:10083C002268136823F040031360A37E012B39D088
:10084C002268136823F020031360E37E012B37D05A
:10085C002268136843F010031360237F012B35D0FB
:10086C002268136823F008031360637F012B33D0D5
:10087C002268136823F0040313602168A368E268FC
:10088C00134322691343626913436268013A1343A9
:10089C00CB6100206062012384F8203038BD1A68D7
:1008AC0042F080021A60C0E72268136843F04003EC
:1008BC001360C2E72268136843F020031360C4E797
:1008CC002268136823F010031360C6E722681368CC
:1008DC0043F008031360C8E72268136843F004036D
:1008EC001360CAE701207047026890F82030013B82
:1008FC00DBB2012B05D9436A43F480234362012008
:10090C00704770B4D2F8003243F00103C2F80032E1
:10091C004B6903F01F03012000FA03F3D2F81C42C9
:10092C00D8430440C2F81C42CC69ACB9D2F80C4292
:10093C000440C2F80C424C69CE688D8845EA0645E5
:10094C00483442F834504C698E680D8845EA0645A7
:10095C00483402EBC4046560CC69012C19D08C6955
:10096C0074BBD2F804420440C2F804420C696CBB5C
:10097C00D2F814422040C2F81402096A01292BD083
:10098C00D2F8003223F00103C2F80032002070BC10
:10099C007047D2F80C421C43C2F80C424C690E68EA
:1009AC008D8845EA0645483442F834504C698E68C7
:1009BC008D8945EA0645483402EBC4046560CEE7F0
:1009CC00D2F804421C43C2F80442CFE7D2F8140216
:1009DC001843C2F81402D0E7D2F81C120B43C2F829
:1009EC001C32CDE738B590F82030DBB2012B05D0A6
:1009FC00436A43F400234362012038BD04460223BA
:100A0C0080F820300268136823F001031360FFF7AD
:100A1C00EFFB054623685B6813F0010F0DD0FFF761
:100A2C00E7FB401B0A28F5D9636A43F40033636281
:100A3C00052384F82030012038BD0020606238BDC9
:100A4C0070B490F820400568AD68013CE4B2012C0C
:100A5C0006D9436A43F480234362012070BC70477B
:100A6C0015F0E05F5BD0C5F30165022D3ED8012483
:100A7C00AC401C608B68002B3ED104680E68CB68C0
:100A8C0043EA465605F118031B01E65003680C694E
:100A9C0005F1180603EB06135C600B7D012B36D0B9
:100AAC000468D17993791B0443EA0163517943EAD1
:100ABC00012311790B432E013444C4F88C310168A5
:100ACC00D47893781B0443EA0463547843EA0423F0
:100ADC00127813433144C1F88831026818352D015E
:100AEC00535943F0010353510020B7E7436A43F4D1
:100AFC00000343620120B1E704684E6843EAC60371
:100B0C00CE68334305F118063601A351BEE70368DE
:100B1C0003EB0613596841F480715960C0E7436ACE
:100B2C0043F400134362012098E790F82030013B16
:100B3C00DBB2012B05D9436A43F4802343620120C5
:100B4C007047026853691943516100207047704720
:100B5C0070477047704770477047704770477047D1
:100B6C00704770472DE9F84F054603685C695F686C
:100B7C009E68D3F80C90D3F81080D3F818A014F01A
:100B8C00010F5AD016F0010F17D001229A6016F0FF
:100B9C00020F08D116F0040F30D116F0080F07D051
:100BAC004FF4805B0BE001F0ABFD4FF0000B06E067
:100BBC00FFF7CFFF4FF0000B01E04FF0000B16F4E6
:100BCC00807F0BD02B684FF480729A6016F4007FF4
:100BDC0017D116F4806F18D04BF4005B16F4803FDD
:100BEC002DD02B684FF480329A6016F4003F16D14A
:100BFC0016F4802F17D04BF4004B20E04FF4006B11
:100C0C00DDE72846FFF7A3FFE8E716F4006F02D0F4
:100C1C004BF4804BE2E72846FFF79CFFDEE72846C3
:100C2C00FFF796FF0BE016F4002F02D04BF4803B3D
:100C3C0005E02846FFF78FFF01E04FF0000B14F0A2
:100C4C00080F07D019F0100F04D04BF4007B2B6861
:100C5C001022DA6014F0040F02D019F0080F60D1E2
:100C6C0014F0020F04D02B68DB6813F0030F5FD174
:100C7C0014F0400F07D018F0100F04D04BF4806B19
:100C8C002B6810221A6114F0200F02D018F0080FF4
:100C9C0052D114F0100F04D02B681B6913F0030F02
:100CAC0051D114F4003F02D017F0100F4FD114F4AF
:100CBC00803F02D017F0080F50D114F4004F67D0CA
:100CCC0017F0040F61D014F4807F04D01AF0010FD8
:100CDC0001D04BF0010B14F4007F04D01AF0020F7A
:100CEC0001D04BF0020B14F4806F04D01AF0040FF7
:100CFC0001D04BF0040B14F4006F46D01AF0700ABC
:100D0C0043D0BAF1300F48D02FD9BAF1500F47D099
:100D1C00BAF1600F47D0BAF1400F31D14BF0400B14
:100D2C002EE02B680822DA602846FFF715FF97E7BC
:100D3C00284601F0E6FC9BE72B6808221A6128463E
:100D4C00FFF70CFFA5E72846FFF707FFA9E72B687D
:100D5C0010225A602846FFF702FFA8E72B680822EA
:100D6C005A602846FFF7FCFEA7E7BAF1100F05D032
:100D7C00BAF1200F04D14BF0100B01E04BF0080B33
:100D8C002A68936923F0700393612B6804225A60DC
:100D9C00BBF1000F0AD1BDE8F88F4BF0200BEFE749
:100DAC004BF0800BECE74BF4807BE9E76B6A4BEA8A
:100DBC0003036B622846FFF7D4FEECE7074AD368BF
:100DCC0023F4E0631B041B0C000200F4E0601843E6
:100DDC0040F0BF6040F40030D060704700ED00E0A0
:100DEC0030B4164BDB68C3F30223C3F10704042CA5
:100DFC0028BF04241D1D062D17D9033B012505FA18
:100E0C0004F4013C2140994005FA03F3013B1340E3
:100E1C00194300280BDB0901C9B200F1604000F551
:100E2C00614080F8001330BC70470023E6E700F007
:100E3C000F000901C9B2024B1954F4E700ED00E0B0
:100E4C0014ED00E0002808DB420900F01F0001232C
:100E5C0003FA00F0014B43F82200704700E100E078
:100E6C000138B0F1807F0AD2064B5860F021064A57
:100E7C0082F823100020986007221A607047012026
:100E8C00704700BF10E000E000ED00E0F0B583B06B
:100E9C000026344671E0002D00F0A280012D00D117
:100EAC00CE68FF2B00F2B0808646FF2B00F2AF809D
:100EBC00A500DEF800200F27AF4022EA070206FA51
:100ECC0005F52A43CEF800204A6812F0805F53D013
:100EDC00644A956945F001059561926902F0010239
:100EEC000192019AA508AF1C5F4A52F8272004F022
:100EFC000307BF004FF00F0E0EFA07FE22EA0E0298
:100F0C00DFF874E1704500F089800EF5806E704555
:100F1C0000F087800EF5806E704500F085800EF530
:100F2C00806E704577D04FF0040E0EFA07F73A43F7
:100F3C0002354D4F47F825204A6812F4803F76D091
:100F4C004A4D2A681A432A604A6812F4003F74D04A
:100F5C00464D6A681A436A604A6812F4801F72D060
:100F6C00424DAA681A43AA604A6812F4001F70D056
:100F7C003E4DEA681343EB6001340B6833FA04F21C
:100F8C006DD00122A24013409A42F5D14D68122D2A
:100F9C0030D00BD8022D2AD07FF67DAF032D2FD069
:100FAC00112D7FF47EAFCE6804367AE7304FBD4208
:100FBC0016D00CD92F4FBD4212D007F58037BD4249
:100FCC000ED0A7F58017BD427FF46BAF08E0A7F5F4
:100FDC008017BD4204D007F58037BD427FF461AF66
:100FEC008D687DB1012D08D04261082659E7CE6885
:100FFC00083656E7CE680C3653E70261082650E7F0
:10100C0000264EE704264CE700F1040E4DE7A4F150
:10101C000805AD004DE74FF0030E86E74FF0000ECC
:10102C0083E74FF0010E80E74FF0020E7DE70F4D86
:10103C002A6822EA03022A6086E70C4D6A6822EAD3
:10104C0003026A6088E7094DAA6822EA0302AA60D3
:10105C008AE7064DEA6822EA0303EB608CE703B0EB
:10106C00F0BD00BF00100240000001400004014030
:10107C000000211000003110000801408368194263
:10108C0001D1002070470120704712B90904016199
:10109C007047016170470000002800F0BE80F8B571
:1010AC00044690F83D30002B6BD0242384F83D305F
:1010BC002268136823F00103136000F0CBFB626815
:1010CC00584B9A4262D8584B98428CBF002301234C
:1010DC00002B40F0A480554BA3FB00239A0C2168F5
:1010EC004B6823F03F0313434B602568296A21F0BA
:1010FC003F0166684B4B9E424ED8531C0B432B62F0
:10110C002268D16921F44F4121F0FF016368454DFC
:10111C00AB424BD801385B00B0FBF3F30133C3F3A4
:10112C000B03042B38BF04230B43D36121680B68DA
:10113C0023F0C003E269206A024313430B60216869
:10114C008B6823F4034323F0FF032269E068024316
:10115C0013438B602168CB6823F0FF036269A0699D
:10116C0002431343CB602268136843F001031360FE
:10117C0000202064202384F83D30206384F83E0056
:10118C00F8BD80F83C3001F021FC8EE7284B9842EA
:10119C008CBF002301239BE74FF4967303FB02F3F0
:1011AC00244AA2FB03239B090133A7E7A668BEB917
:1011BC00451E03EB4307B5FBF7F50135C5F30B05EE
:1011CC00B5FA85F56D0935BBC6B9013803EB430398
:1011DC00B0FBF3F30133C3F30B0343F40043A3E776
:1011EC00451E03EB830707EB8707B5FBF7F50135C6
:1011FC00C5F30B05B5FA85F56D09E4E7013803EB8A
:10120C00830303EB8303B0FBF3F30133C3F30B034F
:10121C0043F4404388E7012386E70120704701200F
:10122C00F8BD00BFA08601007F841E0083DE1B4337
:10123C00FF083D00D34D621082B0084B1B68084A72
:10124C00A2FB03235B0A00FB03F0019000BF019B90
:10125C005A1E0192002BF9D102B0704740000020B9
:10126C00D34D6210002800F0F58170B582B00446B1
:10127C00036813F0010F3DD0AB4B5B6803F00C031C
:10128C00042B2ED0A84B5B6803F00C03082B23D047
:10129C006368B3F5803F51D0002B55D103F18043E7
:1012AC0003F504331A6822F480321A601A6822F4A7
:1012BC0080221A606368002B60D0FEF799FF054608
:1012CC00994B1B6813F4003F14D1FEF791FF401BA0
:1012DC006428F5D90320C2E1934B5B6813F4803F7B
:1012EC00D6D0914B1B6813F4003F03D06368002BDE
:1012FC0000F0B281236813F0020F65D08A4B5B6853
:10130C0013F00C0F4ED0884B5B6803F00C03082BCA
:10131C0043D02369002B79D00122844B1A60FEF74D
:10132C0067FF0546804B1B6813F0020F65D1FEF773
:10133C005FFF401B0228F5D9032090E17A4A13681D
:10134C0043F480331360B5E7B3F5A02F09D0764B87
:10135C001A6822F480321A601A6822F480221A6009
:10136C00A8E703F18043A3F53C331A6842F48022CA
:10137C001A601A6842F480321A609BE7FEF738FF55
:10138C000546694B1B6813F4003FB3D0FEF730FFE2
:10139C00401B6428F5D9032061E1634B5B6813F4AF
:1013AC00803FB6D1604B1B6813F0020F04D0236949
:1013BC00012B01D0012052E15B4A136823F0F803A2
:1013CC00616943EAC1031360236813F0080F32D03C
:1013DC00A369002B6ED00122554B1A60FEF708FF53
:1013EC000546514B5B6A13F0020F21D1FEF700FF4B
:1013FC00401B0228F5D9032031E14B4A136823F036
:10140C00F803616943EAC1031360DDE70022474B2F
:10141C001A60FEF7EDFE0546434B1B6813F0020FF6
:10142C00D2D0FEF7E5FE401B0228F5D9032016E1C9
:10143C000120FFF701FF236813F0040F00F09880E0
:10144C00394BDB6913F0805F46D1374BDA6942F0D8
:10145C008052DA61DB6903F080530193019B012513
:10146C00344B1B6813F4807F38D0E368012B49D0D0
:10147C00002B4DD103F1804303F504331A6A22F09B
:10148C0001021A621A6A22F004021A62E368002B43
:10149C005CD0FEF7ADFE0646234B1B6A13F0020F21
:1014AC0065D1FEF7A5FE801B41F288339842F3D933
:1014BC000320D4E000221E4B1A60FEF799FE05466D
:1014CC00194B5B6A13F0020FB5D0FEF791FE401B6F
:1014DC000228F5D90320C2E00025C1E7154A13689C
:1014EC0043F480731360FEF783FE0646114B1B68B2
:1014FC0013F4807FB9D1FEF77BFE801B6428F5D9ED
:10150C000320ACE0084A136A43F001031362BDE701
:10151C00052B11D0044B1A6A22F001021A621A6AC6
:10152C0022F004021A62B1E70010024000004242AD
:10153C0080044242007000404C4B1A6A42F0040294
:10154C001A621A6A42F001021A629FE7FEF750FE15
:10155C000646464B1B6A13F0020F08D0FEF748FEF6
:10156C00801B41F288339842F3D9032077E0E5B928
:10157C00E369002B72D03D4A526802F00C02082A33
:10158C0056D0022B17D00022394B1A60FEF730FED2
:10159C000446364B1B6813F0007F47D0FEF728FE3D
:1015AC00001B0228F5D9032059E0304AD36923F0F7
:1015BC008053D361DCE700222D4B1A60FEF718FE36
:1015CC0005462A4B1B6813F0007F06D0FEF710FE71
:1015DC00401B0228F5D9032041E0236AB3F5803F74
:1015EC001AD022494B6823F47413226A606A0243AE
:1015FC0013434B6001221E4B1A60FEF7F9FD0446A3
:10160C001A4B1B6813F0007F0ED1FEF7F1FD001B87
:10161C000228F5D9032022E0144A536823F400333E
:10162C00A1680B435360DCE7002018E0002016E0B3
:10163C00012B16D00D4B5B6803F48031226A91426A
:10164C0001D001200BE003F47013626A93420AD0BC
:10165C00012004E001207047012000E0002002B0CE
:10166C0070BD0120FBE70020F9E700BF001002402D
:10167C006000424210B586B0154C94E80F000DF195
:10168C00180E0EE90F00238AADF80430114B5B687D
:10169C0003F00C02082A18D1C3F38342724412F8E7
:1016AC00102C13F4803F03D10B4800FB02F00DE02B
:1016BC00084B5B68C3F34043734413F8143C07486E
:1016CC0000FB02F0B0FBF3F000E0044806B010BDE4
:1016DC00003500080010024000093D0000127A009D
:1016EC00002800F0A38070B50446524B1B6803F031
:1016FC0007038B420CD24F4A136823F007030B43AA
:10170C001360136803F00703994201D0012070BDE8
:10171C00236813F0020F17D013F0040F04D0464ABD
:10172C00536843F4E0635360236813F0080F04D04C
:10173C00414A536843F4605353603F4A536823F063
:10174C00F003A068034353600D46236813F0010FA8
:10175C0031D06368012B20D0022B25D0364A126879
:10176C0012F0020F64D034494A6822F0030213438A
:10177C004B60FEF73DFD06462F4B5B6803F00C03F8
:10178C006268B3EB820F16D0FEF732FD801B41F27C
:10179C0088339842F0D9032070BD274A126812F49E
:1017AC00003FE0D1012070BD234A126812F0007F87
:1017BC00D9D1012070BD1F4B1B6803F007039D425C
:1017CC000CD21C4A136823F007032B4313601368D5
:1017DC0003F007039D4201D0012070BD236813F074
:1017EC00040F06D0144A536823F4E063E1680B43FA
:1017FC005360236813F0080F07D00F4A536823F483
:10180C006053216943EAC1035360FFF733FF0A4B6E
:10181C005B68C3F30313094AD35CD840084B1860C8
:10182C00084B1868FEF7A2FC002070BD0120704721
:10183C00012070BD00200240001002402835000835
:10184C004000002004000020014B1868704700BFC6
:10185C004000002008B5FFF7F7FF044B5B68C3F3AB
:10186C000223034AD35CD84008BD00BF00100240DD
:10187C003835000808B5FFF7E7FF044B5B68C3F386
:10188C00C223034AD35CD84008BD00BF00100240FD
:10189C003835000870B582B00446036813F0010FA8
:1018AC0034D03E4BDB6913F0805F48D13B4BDA6997
:1018BC0042F08052DA61DB6903F080530193019BA3
:1018CC000125374B1B6813F4807F3AD0334B1B6ACE
:1018DC0013F4407311D0626802F4407293420CD03E
:1018EC002E4A136A23F440702E4901260E600026FE
:1018FC000E60106213F0010F37D1284A136A23F4DB
:10190C00407361680B431362002D3FD1236813F0C1
:10191C00020F06D0214A536823F44043A1680B43BD
:10192C005360236813F0100F35D01C4A536823F40E
:10193C008003E1680B435360002002B070BD0025AA
:10194C00BFE7174A136843F480731360FEF750FC2B
:10195C000646134B1B6813F4807FB7D1FEF748FC87
:10196C00801B6428F5D90320E7E7FEF741FC064607
:10197C000A4B1B6A13F0020FBFD1FEF739FC801B18
:10198C0041F288339842F3D90320D6E7D36923F088
:10199C008053D361BAE70020CFE700BF00100240AC
:1019AC00007000404004424230B587B00546384CC8
:1019BC0094E80F000DF1180E0EE90F00238AADF814
:1019CC000430022D53D0102D03D0012D2BD000202C
:1019DC0057E0304B5A681B6813F0807F53D0C2F32A
:1019EC00834306A90B4413F8100C12F4803F16D055
:1019FC00284B5B68C3F340430B4413F8142C264B61
:101A0C00B3FBF2F303FB00F0224B5B6813F4800F83
:101A1C0037D14000214BA3FB0030400831E0204B74
:101A2C0003FB00F0F0E71B4B1B6A40F202321A403A
:101A3C00B2F5817F29D003F44073B3F5007F04D055
:101A4C00B3F5407F09D000201BE0124A526A12F015
:101A5C00020FF5D049F6404013E00E4B1B6813F40F
:101A6C00003F02D04FF224400BE0002009E0FFF7CA
:101A7C0001FF084B5B68C3F3813301335B00B0FBA0
:101A8C00F3F007B030BD0020FBE74FF40040F8E75F
:101A9C00143500080010024000127A00ABAAAAAA62
:101AAC0000093D0010B4036A046A24F001040462C6
:101ABC00846924F0F00444EA021223F00A030B4375
:101ACC008261036210BC704710B4036A23F01003E8
:101ADC0003628469036A24F4704444EA023223F0FA
:101AEC00A00343EA01138261036210BC7047836850
:101AFC0023F07003194341F00701816070470268BD
:101B0C00D36843F00103D3600268936803F00703C2
:101B1C00062B03D0136843F00103136000207047B9
:101B2C007047704770477047704710B5044603689C
:101B3C001A6912F0020F11D0DA6812F0020F0DD0F0
:101B4C006FF002021A610123037703689B6913F09B
:101B5C00030F70D0FFF7E6FF0023237723681A6981
:101B6C0012F0040F12D0DA6812F0040F0ED06FF0DE
:101B7C0004021A610223237723689B6913F4407FC4
:101B8C005FD02046FFF7CEFF0023237723681A6926
:101B9C0012F0080F12D0DA6812F0080F0ED06FF0A6
:101BAC0008021A61042323772368DB6913F0030FFF
:101BBC004ED02046FFF7B6FF0023237723681A691F
:101BCC0012F0100F12D0DA6812F0100F0ED06FF066
:101BDC0010021A61082323772368DB6913F4407F12
:101BEC003DD02046FFF79EFF0023237723681A6918
:101BFC0012F0010F03D0DA6812F0010F36D123680E
:101C0C001A6912F0800F03D0DA6812F0800F34D109
:101C1C0023681A6912F0400F03D0DA6812F0400FF3
:101C2C0032D123681A6912F0200F03D0DA6812F04F
:101C3C00200F30D110BDFFF774FF2046FFF773FF64
:101C4C008AE72046FFF76DFF2046FFF76CFF9BE706
:101C5C002046FFF766FF2046FFF765FFACE72046FE
:101C6C00FFF75FFF2046FFF75EFFBDE76FF0010255
:101C7C001A612046FFF754FFC1E76FF080021A612A
:101C8C00204600F000F9C3E76FF040021A612046CD
:101C9C00FFF74AFFC5E76FF020021A61204600F0FB
:101CAC00F1F8C7E703681C4A904227D0B0F1804F87
:101CBC0024D0A2F59432904220D002F5806290425A
:101CCC001CD0154A90421ED0B0F1804F1BD0A2F50B
:101CDC009432904217D002F58062904213D023F0D8
:101CEC0080034A69134303608B68C3620B68836289
:101CFC00094B98420CD001234361704723F07003C9
:101D0C004A681343DDE723F44073CA681343E6E7DC
:101D1C000B690363EFE700BF002C0140A8B110B5BD
:101D2C00044690F83D305BB1022384F83D30211D10
:101D3C002068FFF7B7FF012384F83D30002010BD69
:101D4C0080F83C3000F074FEEEE70120704710B4D0
:101D5C00846824F47F4442EA032319430C438460CF
:101D6C0010BC704790F83C30012B66D010B504467F
:101D7C00012380F83C30022380F83D3002689368E0
:101D8C0023F47F4323F0770393600B68402B4AD0F6
:101D9C0013D9602B3DD01ED9702B28D0B3F5005F22
:101DAC0030D1CB684A6889680068FFF7D0FF226899
:101DBC00936843F48043936024E0102B06D004D93D
:101DCC00202B03D0302B01D01CE0DBB91946206846
:101DDC00FFF78DFE16E0502B14D1CA6849680068D5
:101DEC00FFF760FE50212068FFF781FE0AE0CB6808
:101DFC004A6889680068FFF7AAFF2268936843F075
:101E0C0077039360012384F83D30002084F83C0074
:101E1C0010BDCA6849680068FFF756FE602120684B
:101E2C00FFF765FEEEE7CA6849680068FFF73AFEFF
:101E3C0040212068FFF75BFEE4E70220704790F832
:101E4C003C30012B1CD070B4012580F83C5002238F
:101E5C0080F83D3004686268A36822F070020E6856
:101E6C00324323F0800349680B436260026893603D
:101E7C0080F83D50002380F83C30184670BC704709
:101E8C00022070477047704738B5044602681369E2
:101E9C0023F44053C1680B431361836802691343F5
:101EAC00426913430168CA6822F4B05222F00C0252
:101EBC001343CB600268536923F4407381690B436D
:101ECC0053610268214B9A421FD0FFF7C3FC216873
:101EDC0000EB800000EB800063689B00B0FBF3F02C
:101EEC001B4DA5FB00325409642202FB14021301A2
:101EFC003233A5FB03235B0903F0F00202EB04125F
:101F0C0003F00F0313448B6038BDFFF7B3FC21685B
:101F1C0000EB800000EB800063689B00B0FBF3F0EB
:101F2C000B4DA5FB00325409642202FB1402130171
:101F3C003233A5FB03235B0903F0F00202EB04121E
:101F4C0003F00F0313448B6038BD00BF0038014011
:101F5C001F85EB512DE9F04105460F461646984674
:101F6C00069C2B681B6837EA03030CBF0123002374
:101F7C00B3421ED1B4F1FF3FF3D02CB1FEF738F9C8
:101F8C00A0EB08008442ECD22A68D36823F4D07307
:101F9C00D3602A68536923F001035361202385F829
:101FAC00393085F83A30002385F838300320BDE805
:101FBC00F0810020BDE8F08158B310B5044690F8CC
:101FCC0039300BB3242384F839302268D36823F4D6
:101FDC000053D3602046FFF757FF2268136923F4A0
:101FEC00904313612268536923F02A0353612268DA
:101FFC00D36843F40053D3600020E063202384F8BB
:10200C00393084F83A3010BD80F8383000F048FD93
:10201C00D8E7012070472DE9F04182B01E4690F8B8
:10202C003930DBB2202B04D00223184602B0BDE8B5
:10203C00F08104460D469046002955D0002A55D013
:10204C0090F83830012B01D10223EEE7012380F800
:10205C0038300023C363212380F83930FEF7C8F8E9
:10206C000746A4F82480A4F8268010E000963B468E
:10207C00002280212046FFF76DFF002838D122680E
:10208C002B88C3F3080353602369CBB90235E38C67
:10209C009BB2BBB1E38C9BB2013B9BB2E384A368C4
:1020AC00B3F5805FE2D000963B46002280212046AB
:1020BC00FFF750FFF0B923682A785A600135E6E73C
:1020CC000135E4E700963B46002240212046FFF70D
:1020DC0041FF034608B10323A7E7202284F83920E7
:1020EC00002284F83820A0E701239EE701239CE717
:1020FC0003239AE7032398E72DE9F84306460F4696
:10210C00904699460022FEF7C0FF49464046FEF72E
:10211C00B5FF0028F9D10024254601E00134E4B2D2
:10212C00172C12D8012239463046FEF7AEFF6D004F
:10213C00002239463046FEF7A8FF49464046FEF7D6
:10214C009DFF0028EAD00135E8E7012239463046E8
:10215C00FEF79BFF85F40005002239463046FEF75A
:10216C0094FF2846BDE8F88310B5044C2160044B5D
:10217C00024621460348FEF763FC10BD1003002005
:10218C00FC010020A001002010B5464B1B884648DE
:10219C0003701B0A4370454B1B8883701B0AC3706A
:1021AC00434C238803711B0A4371B4F902308371C9
:1021BC001B12C371AA21FFF7D7FF63683D48037058
:1021CC001A1242701A1482701B16C370A368037122
:1021DC001A1242711A1482711B16C371AB21FFF7CC
:1021EC00C3FF354BB3F90020344802701212427011
:1021FC00B3F9022082701212C270B3F9042002717A
:10220C0012124271B3F9063083711B12C3719C21F7
:10221C00FFF7AAFFB4F90C30294803701B12437066
:10222C00B4F90E3083701B12C370B4F91030037103
:10223C001B124371B4F9123083711B12C3719D21AF
:10224C00FFF792FFB4F914301E4803701B12437051
:10225C00B4F9163083701B12C370B4F918300371C3
:10226C001B124371B4F91A3083711B12C3719E2176
:10227C00FFF77AFFB4F91C30134803701B1243703C
:10228C00B4F91E3083701B12C370B4F92030037183
:10229C001B12437100238371C3719F21FFF764FFED
:1022AC0010BD00BFD001002098010020F8010020D3
:1022BC000800002034010020DC000020E801002090
:1022CC002801002000020020D401002038B504466B
:1022DC000D46FEF73FF929462046FDF7A3FF2046A1
:1022EC00FEF758F880B2014B188038BDE40100208D
:1022FC002DE9F04188B000240494059406940794C9
:10230C002A4B9A6942F020029A619A6902F02002E3
:10231C000192019A9A6942F004029A619A6902F058
:10232C0004020292029A9A6942F008029A619B692D
:10233C0003F008030393039B1D4F22464FF40061E7
:10234C003846FEF7A2FE1B4D224610212846FEF70A
:10235C009CFE4FF4006304930126059606944FF0FF
:10236C000208CDF81C8004A93846FEF78FFD4FF407
:10237C00805304930594069404A93846FEF786FD11
:10238C00C82304930594069604A92846FEF77EFDFF
:10239C001023049305960694CDF81C800DEB0301D5
:1023AC002846FEF773FD08B0BDE8F081001002402E
:1023BC0000080140000C014070B51B4D1B4B2B60FD
:1023CC0009236B600024AC60EC604FF4A0232B61FC
:1023DC006C612C7601266E76AC76EC762C776C776D
:1023EC002846FEF7DBF912494C618C61CE6149F647
:1023FC0099130B604C608B60CC600C610E620E23E9
:10240C004B622846FEF770FA2846FEF7EBFA0321DA
:10241C002846FEF78AFB074B5E60DC609C60082256
:10242C001A611C7570BD00BFA00100200064004043
:10243C00FC0000201003002070B584B0002501952D
:10244C00029503950C4C0D4B2360A56025732575E7
:10245C004FF46023E3616560012626612046FEF798
:10246C0015F904230193029603950DEB0301204605
:10247C00FDF794FF04B070BD3C0400200024014023
:10248C0030B585B000230193029303930C4C0D4A95
:10249C002260A360237323754FF46022E2616360B2
:1024AC00012525612046FEF7F1F8092301930295D9
:1024BC000623039301A92046FDF770FF05B030BD3C
:1024CC00C40300200028014008B50948094B0360EB
:1024DC00094B436000238360C3604FF48042026168
:1024EC0043618361C3610362FEF7D6FD08BD00BF83
:1024FC003C01002000580040A086010030B587B098
:10250C0000240294039404940594009401940F4DB8
:10251C004FF080432B604FF4E1536B60AC60312380
:10252C00EB602C61AC612846FFF7F8FB4FF480534D
:10253C00029302A92846FFF715FC00940194694602
:10254C002846FFF77CFC07B030BD00BFAC04002070
:10255C0030B587B00024029403940494059400943D
:10256C0001940F4D0F4B2B604FF4E1536B60AC603B
:10257C0040F21F33EB602C61AC612846FFF7CEFBB9
:10258C004FF48053029302A92846FFF7EBFB00940B
:10259C00019469462846FFF752FC07B030BD00BFD6
:1025AC00FC0300200004004008B50848084B0360F9
:1025BC004FF4E133436000238360C36003610C225A
:1025CC0042618361C361FFF7F7FC08BD6C04002016
:1025DC00003801400FB400B59BB01CAA52F8041B84
:1025EC0000238DF80430009201A800F065FB0A234B
:1025FC00C2B201A90348FFF70EFD1BB05DF804EB56
:10260C0004B070476C04002030B595B0282200212E
:10261C000DEB020000F030FB0024059406940794A7
:10262C0008940994019402940394049401220A924C
:10263C004FF480330B930E920225119512934FF4A5
:10264C00E01313930AA8FEF70DFE0F2305930695CE
:10265C0007944FF4806308930994294605A8FFF763
:10266C003FF801954FF40043039301A8FFF712F9CB
:10267C0015B030BD10B5FDF79DFDFFF7C5FFFFF799
:10268C0037FEFFF799FEFFF7D7FEFFF7F9FEFFF7CE
:10269C001BFFFFF733FFFFF75BFFFFF785FF1148C9
:1026AC00FFF72DFA1048FFF72AFA0520FDF7A6FDD3
:1026BC00FDF79EFD044609210C48FFF707FE0C4B65
:1026CC0018800C48802302461021FFF715FD0A4B99
:1026DC001860FFF759FDFDF78BFD011B0748FFF74D
:1026EC0079FFE5E7AC040020FC030020C4030020C4
:1026FC0030010020000C0140EC04002040350008A3
:10270C007047704708B50448FFF70FFA034B1A8857
:10271C00034B1A8008BD00BFAC040020F803002056
:10272C00D001002008B52C48FFF7FFF92B4B1A6895
:10273C002B4B1A602B4B1A682B4B1A602B4B1B78AC
:10274C00062B04D0294A13780133137008BD284B8B
:10275C00B3F90010274A1180B3F90210264A1180F0
:10276C00B3F90410254A1180B3F90610244A1180DC
:10277C00B3F90810234A1180B3F90A10224A1180C8
:10278C00B3F90C10214A1180B3F90E10204A1180B4
:10279C00B3F910101F4A1180B3F912101E4A1180A0
:1027AC00B3F914101D4A1180B3F916101C4A11808C
:1027BC00B3F918101B4A1180B3F91A101A4A118078
:1027CC00B3F91C10194A1180B3F91E20184B1A804A
:1027DC000022064B1A70B5E7FC030020F40300201E
:1027EC003C000020EC04002010000020C40000205D
:1027FC00DC0000200A0000203600002034000020FD
:10280C0032000020300000201400002016000020B0
:10281C00180000201A0000201C0000201E000020C0
:10282C002000002022000020240000202600002090
:10283C002800002082B00E4B9A6942F001029A6186
:10284C009A6902F001020092009ADA6942F0805211
:10285C00DA61DB6903F080530193019B054A5368ED
:10286C0023F0E06343F00073536002B0704700BF85
:10287C00001002400000014000B589B00023049311
:10288C000593069307930368204A934205D0204A88
:10289C0093421ED009B05DF804FB1E4B9A6942F4BA
:1028AC0000729A619A6902F400720092009A9A6915
:1028BC0042F004029A619B6903F004030193019BAB
:1028CC00102304930323059304A91348FEF7DEFA9F
:1028DC00E0E7104B9A6942F480629A619A6902F4BB
:1028EC0080620292029A9A6942F008029A619B698C
:1028FC0003F008030393039B022304930323059320
:10290C0004A90648FEF7C2FAC4E700BF0024014040
:10291C00002801400010024000080140000C01405A
:10292C0030B587B000230293039304930593026898
:10293C00234B9A4201D007B030BD03F5D633DA6988
:10294C0042F00072DA61DA6902F000720092009AC9
:10295C009A6942F008029A619B6903F0080301939B
:10296C00019B06AC4FF4807344F8103D154D214685
:10297C002846FEF78BFA4FF400730293022303935D
:10298C000323059321462846FEF780FA0E4A536826
:10299C0023F4C04343F0E06343F4804353600022CC
:1029AC0011461320FEF71CFA1320FEF74BFA0022F7
:1029BC0011461420FEF714FA1420FEF743FABAE776
:1029CC0000640040000C01400000014010B586B0CE
:1029DC00002302930393049305930268114B9A42CC
:1029EC0001D006B010BD104CA36943F00803A361DD
:1029FC00A36903F008030093009B4FF44063029318
:102A0C00122303930323059302A90848FEF73EFA09
:102A1C00E36943F48003E361E36903F48003019306
:102A2C00019BDEE70058004000100240000C014002
:102A3C0000B583B00368B3F1804F05D0164A9342BA
:102A4C0016D003B05DF804FB03F50433DA6942F0E9
:102A5C000102DA61DB6903F001030093009B0022A1
:102A6C0011461C20FEF7BCF91C20FEF7EBF9E8E739
:102A7C000A4BDA6942F00202DA61DB6903F0020305
:102A8C000193019B002211461D20FEF7A9F91D2080
:102A9C00FEF7D8F9D5E700BF000400400010024053
:102AAC0010B586B000230293039304930593026838
:102ABC00174B9A4201D006B010BD03F558439A69E2
:102ACC0042F480429A619A6902F480420092009A20
:102ADC009A6942F004029A619B6903F00403019322
:102AEC00019B4FF40073029302230393032305937A
:102AFC00084C02A92046FEF7C9F94FF480630293F3
:102B0C0000230393049302A92046FEF7BFF9D2E7F2
:102B1C0000380140000801407047FEE7FEE7FEE781
:102B2C00FEE770477047704708B5FDF755FB08BDC9
:102B3C0008B50248FEF716F808BD00BFA00100203A
:102B4C0008B50248FEF70EF808BD00BFA001002032
:102B5C0008B503460B4A126842B10A4A106803448E
:102B6C006A46934206D8074A136008BD0649054ACF
:102B7C001160F2E700F056F80C2303604FF0FF30C1
:102B8C0008BD00BFC8000020F80400200F4B1A68D5
:102B9C0042F001021A6059680D4A0A405A601A68DC
:102BAC0022F0847222F480321A601A6822F4802295
:102BBC001A605A6822F4FE025A604FF41F029A609F
:102BCC004FF00062034B9A60704700BF0010024048
:102BDC000000FFF800ED00E0002103E00B4B5B5818
:102BEC00435004310A480B4B42189A42F6D30A4A16
:102BFC0002E0002342F8043B084B9A42F9D3FFF75A
:102C0C00C5FF00F015F8FFF735FD7047803500085B
:102C1C0000000020A8000020A8000020F4040020E0
:102C2C00FEE70000014B1868704700BF440000200D
:102C3C0070B500250C4E0D4CA41BA410A54209D157
:102C4C0000F04CFC00250A4E0A4CA41BA410A54213
:102C5C0005D170BD56F8253098470135EEE756F88A
:102C6C00253098470135F2E77835000878350008AB
:102C7C00783500087C35000803460244934200D1A5
:102C8C00704703F8011BF9E710B59AB00091049155
:102C9C006FF00041029105914FF6FF714FF40274F1
:102CAC00ADF80E106946ADF80C4000F06BF8002240
:102CBC00009B1A701AB010BD13460A460146024812
:102CCC000068FFF7E1BF00BF440000202DE9F0478A
:102CDC008E6882469E420C469146984635D88A8923
:102CEC0012F4906F31D00223256809696F1A656957
:102CFC0005EB450595FBF3F508F101033B449D42BB
:102D0C0038BF1D46530531D5294600F047FB064612
:102D1C0050B90C23CAF80030A3894FF0FF3043F0B0
:102D2C004003A381BDE8F0873A46216900F0C4FA5C
:102D3C00A38923F4906343F08003A38126613E446E
:102D4C00266046466561ED1BA560464528BF464694
:102D5C0049463246206800F0BAFAA36800209B1B53
:102D6C00A36023681E442660BDE8F0872A4600F065
:102D7C0073FB06460028E1D12169504600F0C2FAE7
:102D8C00C7E700002DE9F04F9DB003938B89804677
:102D9C001C060D4616460FD50B696BB9402100F089
:102DAC00FDFA2860286128B90C23C8F800304FF0D0
:102DBC00FF30C4E040236B610023099320238DF87E
:102DCC00293030234FF0010B8DF82A3037463C4622
:102DDC0014F8013B002B3CD1B7EB060A0BD0534641
:102DEC00324629464046FFF771FF013000F0A280C1
:102DFC00099B534409933B78002B00F09B800023E4
:102E0C004FF0FF3204930793059206938DF85330DD
:102E1C001A9305222178504800F040FA671C049B55
:102E2C00D8B9D90644BF20228DF853201A0744BFC5
:102E3C002B228DF8532022782A2A16D000210A2022
:102E4C00079A27463B780134303B092B50D9C9B13E
:102E5C0011E0252BC0D02746B9E73F4A3C46801AE3
:102E6C000BFA00F018430490D3E7039A111D126873
:102E7C000391002A01DB079204E0524243F0020363
:102E8C00079204933B782E2B0DD17B78791C2A2B3F
:102E9C0032D1039B02371A1D1B680392002BB8BF5B
:102EAC004FF0FF3305932D4C03223978204600F068
:102EBC00F5F938B14023001B03FA00F0049B0137ED
:102ECC00034304933978062225487E1C8DF828107C
:102EDC0000F0E4F9002835D0224BFBB9039B0733F3
:102EEC0023F0070308330393099B4B4409936DE7C5
:102EFC0000FB02320121A4E700230A2418460593A3
:102F0C000F463A780131303A092A03D9002BCAD03E
:102F1C000590C8E704FB00200123F1E703AB009305
:102F2C002A46114B04A94046AFF30080B0F1FF3F95
:102F3C008146D9D1AB895B063FF539AF09981DB0F5
:102F4C00BDE8F08F03AB00932A46074B04A940461B
:102F5C0000F084F8EAE700BF443500084A35000861
:102F6C004E35000800000000D92C00082DE9F04770
:102F7C0091461F468A680B6906469342B8BF1346B2
:102F8C00C9F8003091F843200C46DDF8208012B1CE
:102F9C000133C9F800302368990642BFD9F80030D4
:102FAC000233C9F80030256815F0060507D104F185
:102FBC00190AE368D9F800209B1A9D422ADB94F881
:102FCC0043302268003318BF012392062FD404F13A
:102FDC00430239463046C047013022D02368E568A9
:102FEC0003F00603042B18BF0025D9F800204FF07E
:102FFC00000908BFAD1AA368226908BF25EAE57568
:10300C009342C4BF9B1AED181A344D451BD10020B6
:10301C00BDE8F0870123524639463046C04701309F
:10302C0003D14FF0FF30BDE8F0870135C1E7302008
:10303C00E11881F843005A1C94F8451022440233DD
:10304C0082F84310C3E70123224639463046C04775
:10305C000130E6D009F10109D7E700002DE9F04372
:10306C0017460A7E85B06E2A984606460C460C9B7F
:10307C0001F1430E00F0BC801AD8632A2ED00AD876
:10308C00002A00F0C880582A00F08A8004F142051A
:10309C0084F842202AE0642A01D0692AF6D12168FA
:1030AC001A6811F0800F23D0111D1960136827E0E6
:1030BC00732A00F0B48008D86F2A2AD0702AE5D180
:1030CC000A6842F020020A6003E0752A21D0782AAF
:1030DC00DCD178226F4984F8452064E01A6801F14C
:1030EC004205111D1960136884F842300123A3E0D6
:1030FC0011F0400F02F104011960D7D0B2F9003081
:10310C00002B03DA2D225B4284F8432062490A2209
:10311C0017E02068196810F0800F03D0081D1860A4
:10312C000B6806E010F0400F01F104001860F7D0B6
:10313C000B886F2A14BF0A2208225749002084F8F2
:10314C0043006568002DA560C0F29C80206820F0CB
:10315C0004002060002B3FD1002D40F09580754677
:10316C00082A0BD12368DA0708D5236962689A42CA
:10317C00DEBF302305F8013C05F1FF35AEEB05034E
:10318C002361CDF800803B4603AA21463046FFF769
:10319C00EDFE013055D14FF0FF3005B0BDE8F083A6
:1031AC0081F845203C492268186812F0800F00F124
:1031BC0004051D6001D0036802E05506FBD50388A9
:1031CC00D00744BF42F0200222601BB9226822F0D3
:1031DC00200222601022B1E77546B3FBF2F002FB2D
:1031EC001033CB5C05F8013D03460028F5D1B7E759
:1031FC0008681A6810F0800F496904D0101D186017
:10320C001368196007E010F0400F02F10400186019
:10321C001368F6D01980002375462361B1E71A684C
:10322C00111D1960156800216268284600F036F8F7
:10323C0008B1401B606063682361002384F843304D
:10324C009FE723692A4639463046C0470130A2D051
:10325C0023689B0707D5002504F11909E368039A35
:10326C009B1A9D4205DBE068039B9842B8BF184649
:10327C0093E701234A4639463046C04701308AD08D
:10328C000135EBE7002BA7D10B7804F1420584F84C
:10329C00423065E7663500085535000810B5C9B2EF
:1032AC0002449042034601D1002010BD1C7801302D
:1032BC008C42F6D1184610BD10B5431E0A449142FB
:1032CC0000D110BD11F8014B03F8014FF7E788420C
:1032DC0010B501EB020303D8421E99420CD110BD6C
:1032EC009842F9D28118D21AD34200D110BD13F8EA
:1032FC00014D01F8014DF7E711F8014B02F8014FB0
:10330C00EBE7000038B50546002943D051F8043CE2
:10331C000C1F002BB8BFE41800F0D4F81E4A136839
:10332C00104633B9636014602846BDE8384000F09D
:10333C00CAB8A3420BD921686218934201BF1A681C
:10334C005B685218226063600460EDE713465A68AC
:10335C000AB1A242FAD919685818A0420BD12068B8
:10336C000144581882421960DED110685268014439
:10337C0019605A60D8E702D90C232B60D4E7206877
:10338C0021188A4201BF11685268091821606260D5
:10339C005C60C9E738BD00BFD000002070B5CD1C03
:1033AC0025F0030508350C2D38BF0C25002D0646DD
:1033BC0001DBA94203D90C233360002070BD00F05F
:1033CC0081F8234A1468214691B9224C23681BB911
:1033DC00304600F067F820602946304600F062F86D
:1033EC00431C26D10C233046336000F06CF8E4E724
:1033FC000B685B1B1AD40B2B0FD90B60CC18CD5060
:10340C00304600F060F804F10B00231D20F007009B
:10341C00C31A1BD05A42E25070BD8C420BBF63687A
:10342C004B681360636018BF0C46E9E70C464968AB
:10343C00CAE7C41C24F00304A04205D0211A30466C
:10344C0000F030F80130CDD02560D9E770BD00BF59
:10345C00D0000020D4000020F8B5074614460E46D4
:10346C0021B91146BDE8F840FFF798BF22B9FFF724
:10347C0049FF25462846F8BD00F026F884420FD9AE
:10348C0021463846FFF78AFF05460028F2D0314620
:10349C002246FFF711FF31463846FFF733FFE9E7C5
:1034AC003546E7E738B50023054C0546084623604A
:1034BC00FFF74EFB431C02D1236803B12B6038BDD0
:1034CC00F00400207047704751F8040C0028A0F15C
:1034DC000400BCBF0B58C01870470000F8B500BF03
:1034EC00F8BC08BC9E467047F8B500BFF8BC08BCD9
:0434FC009E46704731
:1035000002030405060708090A0B0C0D0E0F101024
:103510000102000002030405060708090A0B0C0D4E
:103520000E0F10100102000000000000000000005B
:103530000102030406070809000000000102030459
:1035400025640A00232D302B2000686C4C00656632
:1035500067454647003031323334353637383941E4
:1035600042434445460030313233343536373839FA
:083570006162636465660000FE
:043578003101000815
:04357C000D01000835
:103580000100000010000000010001000100000027
:103590000100000001000100010001000100010024
:1035A00001000100010001000100600001000000B5
:1035B00001000100010001005000000001000000B6
:1035C0000024F4004800002000000000000000007B
:1035D00000000000000000000000000000000000EB
:1035E00000000000000000000000000000000000DB
:1035F00000000000000000000000000000000000CB
:1036000000000000000000000000000000000000BA
:1036100000000000000000000000000000000000AA
:083620000000000000000000A2
:0400000508002BE5DF
:00000001FF
